{
  "contractName": "CRISP",
  "abi": [
    {
      "inputs": [
        {
          "internalType": "string",
          "name": "_name",
          "type": "string"
        },
        {
          "internalType": "string",
          "name": "_symbol",
          "type": "string"
        },
        {
          "internalType": "int256",
          "name": "_targetBlocksPerSale",
          "type": "int256"
        },
        {
          "internalType": "int256",
          "name": "_saleHalflife",
          "type": "int256"
        },
        {
          "internalType": "int256",
          "name": "_priceSpeed",
          "type": "int256"
        },
        {
          "internalType": "int256",
          "name": "_priceHalflife",
          "type": "int256"
        },
        {
          "internalType": "int256",
          "name": "_startingPrice",
          "type": "int256"
        }
      ],
      "stateMutability": "nonpayable",
      "type": "constructor"
    },
    {
      "inputs": [],
      "name": "FailedToSendEther",
      "type": "error"
    },
    {
      "inputs": [],
      "name": "InsufficientPayment",
      "type": "error"
    },
    {
      "inputs": [
        {
          "internalType": "int256",
          "name": "x",
          "type": "int256"
        }
      ],
      "name": "PRBMathSD59x18__CeilOverflow",
      "type": "error"
    },
    {
      "inputs": [],
      "name": "PRBMathSD59x18__DivInputTooSmall",
      "type": "error"
    },
    {
      "inputs": [
        {
          "internalType": "uint256",
          "name": "rAbs",
          "type": "uint256"
        }
      ],
      "name": "PRBMathSD59x18__DivOverflow",
      "type": "error"
    },
    {
      "inputs": [
        {
          "internalType": "int256",
          "name": "x",
          "type": "int256"
        }
      ],
      "name": "PRBMathSD59x18__Exp2InputTooBig",
      "type": "error"
    },
    {
      "inputs": [
        {
          "internalType": "int256",
          "name": "x",
          "type": "int256"
        }
      ],
      "name": "PRBMathSD59x18__ExpInputTooBig",
      "type": "error"
    },
    {
      "inputs": [
        {
          "internalType": "int256",
          "name": "x",
          "type": "int256"
        }
      ],
      "name": "PRBMathSD59x18__FromIntOverflow",
      "type": "error"
    },
    {
      "inputs": [
        {
          "internalType": "int256",
          "name": "x",
          "type": "int256"
        }
      ],
      "name": "PRBMathSD59x18__FromIntUnderflow",
      "type": "error"
    },
    {
      "inputs": [
        {
          "internalType": "int256",
          "name": "x",
          "type": "int256"
        }
      ],
      "name": "PRBMathSD59x18__LogInputTooSmall",
      "type": "error"
    },
    {
      "inputs": [],
      "name": "PRBMathSD59x18__MulInputTooSmall",
      "type": "error"
    },
    {
      "inputs": [
        {
          "internalType": "uint256",
          "name": "rAbs",
          "type": "uint256"
        }
      ],
      "name": "PRBMathSD59x18__MulOverflow",
      "type": "error"
    },
    {
      "inputs": [
        {
          "internalType": "uint256",
          "name": "prod1",
          "type": "uint256"
        }
      ],
      "name": "PRBMath__MulDivFixedPointOverflow",
      "type": "error"
    },
    {
      "inputs": [
        {
          "internalType": "uint256",
          "name": "prod1",
          "type": "uint256"
        },
        {
          "internalType": "uint256",
          "name": "denominator",
          "type": "uint256"
        }
      ],
      "name": "PRBMath__MulDivOverflow",
      "type": "error"
    },
    {
      "anonymous": false,
      "inputs": [
        {
          "indexed": true,
          "internalType": "address",
          "name": "owner",
          "type": "address"
        },
        {
          "indexed": true,
          "internalType": "address",
          "name": "spender",
          "type": "address"
        },
        {
          "indexed": true,
          "internalType": "uint256",
          "name": "id",
          "type": "uint256"
        }
      ],
      "name": "Approval",
      "type": "event"
    },
    {
      "anonymous": false,
      "inputs": [
        {
          "indexed": true,
          "internalType": "address",
          "name": "owner",
          "type": "address"
        },
        {
          "indexed": true,
          "internalType": "address",
          "name": "operator",
          "type": "address"
        },
        {
          "indexed": false,
          "internalType": "bool",
          "name": "approved",
          "type": "bool"
        }
      ],
      "name": "ApprovalForAll",
      "type": "event"
    },
    {
      "anonymous": false,
      "inputs": [
        {
          "indexed": true,
          "internalType": "address",
          "name": "from",
          "type": "address"
        },
        {
          "indexed": true,
          "internalType": "address",
          "name": "to",
          "type": "address"
        },
        {
          "indexed": true,
          "internalType": "uint256",
          "name": "id",
          "type": "uint256"
        }
      ],
      "name": "Transfer",
      "type": "event"
    },
    {
      "inputs": [
        {
          "internalType": "address",
          "name": "spender",
          "type": "address"
        },
        {
          "internalType": "uint256",
          "name": "id",
          "type": "uint256"
        }
      ],
      "name": "approve",
      "outputs": [],
      "stateMutability": "nonpayable",
      "type": "function"
    },
    {
      "inputs": [
        {
          "internalType": "address",
          "name": "",
          "type": "address"
        }
      ],
      "name": "balanceOf",
      "outputs": [
        {
          "internalType": "uint256",
          "name": "",
          "type": "uint256"
        }
      ],
      "stateMutability": "view",
      "type": "function",
      "constant": true
    },
    {
      "inputs": [],
      "name": "curTokenId",
      "outputs": [
        {
          "internalType": "uint256",
          "name": "",
          "type": "uint256"
        }
      ],
      "stateMutability": "view",
      "type": "function",
      "constant": true
    },
    {
      "inputs": [
        {
          "internalType": "uint256",
          "name": "",
          "type": "uint256"
        }
      ],
      "name": "getApproved",
      "outputs": [
        {
          "internalType": "address",
          "name": "",
          "type": "address"
        }
      ],
      "stateMutability": "view",
      "type": "function",
      "constant": true
    },
    {
      "inputs": [
        {
          "internalType": "address",
          "name": "",
          "type": "address"
        },
        {
          "internalType": "address",
          "name": "",
          "type": "address"
        }
      ],
      "name": "isApprovedForAll",
      "outputs": [
        {
          "internalType": "bool",
          "name": "",
          "type": "bool"
        }
      ],
      "stateMutability": "view",
      "type": "function",
      "constant": true
    },
    {
      "inputs": [],
      "name": "lastPurchaseBlock",
      "outputs": [
        {
          "internalType": "uint256",
          "name": "",
          "type": "uint256"
        }
      ],
      "stateMutability": "view",
      "type": "function",
      "constant": true
    },
    {
      "inputs": [],
      "name": "name",
      "outputs": [
        {
          "internalType": "string",
          "name": "",
          "type": "string"
        }
      ],
      "stateMutability": "view",
      "type": "function",
      "constant": true
    },
    {
      "inputs": [],
      "name": "nextPurchaseStartingEMS",
      "outputs": [
        {
          "internalType": "int256",
          "name": "",
          "type": "int256"
        }
      ],
      "stateMutability": "view",
      "type": "function",
      "constant": true
    },
    {
      "inputs": [],
      "name": "nextPurchaseStartingPrice",
      "outputs": [
        {
          "internalType": "int256",
          "name": "",
          "type": "int256"
        }
      ],
      "stateMutability": "view",
      "type": "function",
      "constant": true
    },
    {
      "inputs": [
        {
          "internalType": "uint256",
          "name": "",
          "type": "uint256"
        }
      ],
      "name": "ownerOf",
      "outputs": [
        {
          "internalType": "address",
          "name": "",
          "type": "address"
        }
      ],
      "stateMutability": "view",
      "type": "function",
      "constant": true
    },
    {
      "inputs": [],
      "name": "priceDecayStartBlock",
      "outputs": [
        {
          "internalType": "uint256",
          "name": "",
          "type": "uint256"
        }
      ],
      "stateMutability": "view",
      "type": "function",
      "constant": true
    },
    {
      "inputs": [],
      "name": "priceHalflife",
      "outputs": [
        {
          "internalType": "int256",
          "name": "",
          "type": "int256"
        }
      ],
      "stateMutability": "view",
      "type": "function",
      "constant": true
    },
    {
      "inputs": [],
      "name": "priceSpeed",
      "outputs": [
        {
          "internalType": "int256",
          "name": "",
          "type": "int256"
        }
      ],
      "stateMutability": "view",
      "type": "function",
      "constant": true
    },
    {
      "inputs": [
        {
          "internalType": "address",
          "name": "from",
          "type": "address"
        },
        {
          "internalType": "address",
          "name": "to",
          "type": "address"
        },
        {
          "internalType": "uint256",
          "name": "id",
          "type": "uint256"
        }
      ],
      "name": "safeTransferFrom",
      "outputs": [],
      "stateMutability": "nonpayable",
      "type": "function"
    },
    {
      "inputs": [
        {
          "internalType": "address",
          "name": "from",
          "type": "address"
        },
        {
          "internalType": "address",
          "name": "to",
          "type": "address"
        },
        {
          "internalType": "uint256",
          "name": "id",
          "type": "uint256"
        },
        {
          "internalType": "bytes",
          "name": "data",
          "type": "bytes"
        }
      ],
      "name": "safeTransferFrom",
      "outputs": [],
      "stateMutability": "nonpayable",
      "type": "function"
    },
    {
      "inputs": [],
      "name": "saleHalflife",
      "outputs": [
        {
          "internalType": "int256",
          "name": "",
          "type": "int256"
        }
      ],
      "stateMutability": "view",
      "type": "function",
      "constant": true
    },
    {
      "inputs": [
        {
          "internalType": "address",
          "name": "operator",
          "type": "address"
        },
        {
          "internalType": "bool",
          "name": "approved",
          "type": "bool"
        }
      ],
      "name": "setApprovalForAll",
      "outputs": [],
      "stateMutability": "nonpayable",
      "type": "function"
    },
    {
      "inputs": [
        {
          "internalType": "bytes4",
          "name": "interfaceId",
          "type": "bytes4"
        }
      ],
      "name": "supportsInterface",
      "outputs": [
        {
          "internalType": "bool",
          "name": "",
          "type": "bool"
        }
      ],
      "stateMutability": "pure",
      "type": "function",
      "constant": true
    },
    {
      "inputs": [],
      "name": "symbol",
      "outputs": [
        {
          "internalType": "string",
          "name": "",
          "type": "string"
        }
      ],
      "stateMutability": "view",
      "type": "function",
      "constant": true
    },
    {
      "inputs": [],
      "name": "targetEMS",
      "outputs": [
        {
          "internalType": "int256",
          "name": "",
          "type": "int256"
        }
      ],
      "stateMutability": "view",
      "type": "function",
      "constant": true
    },
    {
      "inputs": [
        {
          "internalType": "uint256",
          "name": "tokenId",
          "type": "uint256"
        }
      ],
      "name": "tokenURI",
      "outputs": [
        {
          "internalType": "string",
          "name": "",
          "type": "string"
        }
      ],
      "stateMutability": "view",
      "type": "function",
      "constant": true
    },
    {
      "inputs": [
        {
          "internalType": "address",
          "name": "from",
          "type": "address"
        },
        {
          "internalType": "address",
          "name": "to",
          "type": "address"
        },
        {
          "internalType": "uint256",
          "name": "id",
          "type": "uint256"
        }
      ],
      "name": "transferFrom",
      "outputs": [],
      "stateMutability": "nonpayable",
      "type": "function"
    },
    {
      "inputs": [],
      "name": "getCurrentEMS",
      "outputs": [
        {
          "internalType": "int256",
          "name": "result",
          "type": "int256"
        }
      ],
      "stateMutability": "view",
      "type": "function",
      "constant": true
    },
    {
      "inputs": [],
      "name": "getPrice",
      "outputs": [
        {
          "internalType": "uint256",
          "name": "result",
          "type": "uint256"
        }
      ],
      "stateMutability": "view",
      "type": "function",
      "constant": true
    },
    {
      "inputs": [
        {
          "internalType": "int256",
          "name": "lastPurchasePrice",
          "type": "int256"
        }
      ],
      "name": "getNextStartingPrice",
      "outputs": [
        {
          "internalType": "int256",
          "name": "result",
          "type": "int256"
        }
      ],
      "stateMutability": "view",
      "type": "function",
      "constant": true
    },
    {
      "inputs": [
        {
          "internalType": "string",
          "name": "uri",
          "type": "string"
        }
      ],
      "name": "mint",
      "outputs": [],
      "stateMutability": "payable",
      "type": "function",
      "payable": true
    }
  ],
  "bytecode": "0x61010060405260006009553480156200001757600080fd5b50604051620057f9380380620057f983398181016040528101906200003d9190620017cd565b868681600090805190602001906200005792919062001545565b5080600190805190602001906200007092919062001545565b50505043600781905550436008819055506200009784620001ce60201b6200163f1760201c565b60a08181525050620000b483620001ce60201b6200163f1760201c565b60c08181525050620000d182620001ce60201b6200163f1760201c565b60e0818152505062000195620001476200011160a051620000fd89620001ce60201b6200163f1760201c565b620002e860201b6200174d1790919060201c565b6200011c90620018ed565b620001336002620001ce60201b6200163f1760201c565b6200046e60201b620018b91790919060201c565b6200015e6001620001ce60201b6200163f1760201c565b6200016a91906200193b565b620001816001620001ce60201b6200163f1760201c565b620002e860201b6200174d1790919060201c565b60808181525050608051600a81905550620001bb81620001ce60201b6200163f1760201c565b600b819055505050505050505062001b5d565b6000670de0b6b3a76400007f8000000000000000000000000000000000000000000000000000000000000000816200020b576200020a620019d9565b5b058212156200025357816040517fe608e18b0000000000000000000000000000000000000000000000000000000081526004016200024a919062001a19565b60405180910390fd5b670de0b6b3a76400007f7fffffffffffffffffffffffffffffffffffffffffffffffffffffffffffffff816200028e576200028d620019d9565b5b05821315620002d657816040517f71f72a31000000000000000000000000000000000000000000000000000000008152600401620002cd919062001a19565b60405180910390fd5b670de0b6b3a764000082029050919050565b60007f80000000000000000000000000000000000000000000000000000000000000008314806200033857507f800000000000000000000000000000000000000000000000000000000000000082145b1562000370576040517fb3c754a300000000000000000000000000000000000000000000000000000000815260040160405180910390fd5b6000806000851262000383578462000388565b846000035b9150600084126200039a57836200039f565b836000035b90506000620003c383670de0b6b3a764000084620004d760201b620019061760201c565b90507f7fffffffffffffffffffffffffffffffffffffffffffffffffffffffffffffff8111156200042d57806040517f7cb4bef500000000000000000000000000000000000000000000000000000000815260040162000424919062001a51565b60405180910390fd5b60008060016000038813915060016000038713905060018183181462000454578262000461565b826200046090620018ed565b5b9550505050505092915050565b6000808314156200049c57600082146200048a57600062000494565b670de0b6b3a76400005b9050620004d1565b620004ce620004c2620004b585620005f560201b60201c565b846200076f60201b60201c565b620008e460201b60201c565b90505b92915050565b60008060008019858709858702925082811083820303915050600081141562000518578382816200050d576200050c620019d9565b5b0492505050620005ee565b838110620005615780846040517f773cc18c0000000000000000000000000000000000000000000000000000000081526004016200055892919062001a6e565b60405180910390fd5b60008486880990508281118203915080830392506000600186190186169050808604955080840493506001818260000304019050808302841793506000600287600302189050808702600203810290508087026002038102905080870260020381029050808702600203810290508087026002038102905080870260020381029050808502955050505050505b9392505050565b60008082136200063e57816040517f613f4fba00000000000000000000000000000000000000000000000000000000815260040162000635919062001a19565b60405180910390fd5b6000670de0b6b3a764000083126200065a576001905062000692565b7fffffffffffffffffffffffffffffffffffffffffffffffffffffffffffffffff9050826ec097ce7bc90715b34b9f10000000000492505b6000620006c5670de0b6b3a76400008581620006b357620006b2620019d9565b5b05620009f460201b62001a1c1760201c565b9050670de0b6b3a76400008102925060008185901d9050670de0b6b3a7640000811415620006fb5782840293505050506200076a565b60006706f05b59d3b2000090505b60008113156200076057670de0b6b3a76400008283028162000730576200072f620019d9565b5b059150670de0b6b3a7640000600202821262000753578085019450600182901d91505b600181901d905062000709565b5082840293505050505b919050565b60007f8000000000000000000000000000000000000000000000000000000000000000831480620007bf57507f800000000000000000000000000000000000000000000000000000000000000082145b15620007f7576040517f3406846c00000000000000000000000000000000000000000000000000000000815260040160405180910390fd5b600080600085126200080a57846200080f565b846000035b91506000841262000821578362000826565b836000035b9050600062000841838362000b2360201b62001b331760201c565b90507f7fffffffffffffffffffffffffffffffffffffffffffffffffffffffffffffff811115620008ab57806040517fbf79e8d9000000000000000000000000000000000000000000000000000000008152600401620008a2919062001a51565b60405180910390fd5b600080600160000388139150600160000387139050600181831814620008d25782620008d7565b826000035b9550505050505092915050565b60008082121562000960577ffffffffffffffffffffffffffffffffffffffffffffffffcc22e87f6eb468eeb821215620009225760009050620009ef565b6200093682600003620008e460201b60201c565b6ec097ce7bc90715b34b9f100000000081620009575762000956620019d9565b5b059050620009ee565b680a688906bd8b0000008212620009b057816040517fe69458f9000000000000000000000000000000000000000000000000000000008152600401620009a7919062001a19565b60405180910390fd5b6000670de0b6b3a7640000604084901b81620009d157620009d0620019d9565b5b049050620009ea8162000c2960201b62001c311760201c565b9150505b5b919050565b6000700100000000000000000000000000000000821062000a2857608082901c915060808162000a25919062001a9b565b90505b68010000000000000000821062000a5257604082901c915060408162000a4f919062001a9b565b90505b640100000000821062000a7857602082901c915060208162000a75919062001a9b565b90505b62010000821062000a9c57601082901c915060108162000a99919062001a9b565b90505b610100821062000abf57600882901c915060088162000abc919062001a9b565b90505b6010821062000ae157600482901c915060048162000ade919062001a9b565b90505b6004821062000b0357600282901c915060028162000b00919062001a9b565b90505b6002821062000b1e5760018162000b1b919062001a9b565b90505b919050565b60008060008019848609848602925082811083820303915050670de0b6b3a7640000811062000b8b57806040517fd31b340200000000000000000000000000000000000000000000000000000000815260040162000b82919062001a51565b60405180910390fd5b600080670de0b6b3a764000086880991506706f05b59d3b1ffff82119050600083141562000bdd5780670de0b6b3a7640000858162000bcf5762000bce620019d9565b5b040194505050505062000c23565b807faccb18165bd6fe31ae1cf318dc5b51eee0e1ba569b88cd74c1773b91fac1066960016204000080600003040186851186030262040000858803041702019450505050505b92915050565b600077800000000000000000000000000000000000000000000000905060006780000000000000008316111562000c6d57604068016a09e667f3bcc9098202901c90505b60006740000000000000008316111562000c945760406801306fe0a31b7152df8202901c90505b60006720000000000000008316111562000cbb5760406801172b83c7d517adce8202901c90505b60006710000000000000008316111562000ce257604068010b5586cf9890f62a8202901c90505b60006708000000000000008316111562000d095760406801059b0d31585743ae8202901c90505b60006704000000000000008316111562000d30576040680102c9a3e778060ee78202901c90505b60006702000000000000008316111562000d5757604068010163da9fb33356d88202901c90505b60006701000000000000008316111562000d7e576040680100b1afa5abcbed618202901c90505b600066800000000000008316111562000da457604068010058c86da1c09ea28202901c90505b600066400000000000008316111562000dca5760406801002c605e2e8cec508202901c90505b600066200000000000008316111562000df0576040680100162f3904051fa18202901c90505b600066100000000000008316111562000e165760406801000b175effdc76ba8202901c90505b600066080000000000008316111562000e3c576040680100058ba01fb9f96d8202901c90505b600066040000000000008316111562000e6257604068010002c5cc37da94928202901c90505b600066020000000000008316111562000e885760406801000162e525ee05478202901c90505b600066010000000000008316111562000eae57604068010000b17255775c048202901c90505b6000658000000000008316111562000ed35760406801000058b91b5bc9ae8202901c90505b6000654000000000008316111562000ef8576040680100002c5c89d5ec6d8202901c90505b6000652000000000008316111562000f1d57604068010000162e43f4f8318202901c90505b6000651000000000008316111562000f42576040680100000b1721bcfc9a8202901c90505b6000650800000000008316111562000f6757604068010000058b90cf1e6e8202901c90505b6000650400000000008316111562000f8c5760406801000002c5c863b73f8202901c90505b6000650200000000008316111562000fb1576040680100000162e430e5a28202901c90505b6000650100000000008316111562000fd65760406801000000b1721835518202901c90505b60006480000000008316111562000ffa576040680100000058b90c0b498202901c90505b6000644000000000831611156200101e57604068010000002c5c8601cc8202901c90505b600064200000000083161115620010425760406801000000162e42fff08202901c90505b6000641000000000831611156200106657604068010000000b17217fbb8202901c90505b6000640800000000831611156200108a5760406801000000058b90bfce8202901c90505b600064040000000083161115620010ae576040680100000002c5c85fe38202901c90505b600064020000000083161115620010d257604068010000000162e42ff18202901c90505b600064010000000083161115620010f6576040680100000000b17217f88202901c90505b60006380000000831611156200111957604068010000000058b90bfc8202901c90505b60006340000000831611156200113c5760406801000000002c5c85fe8202901c90505b60006320000000831611156200115f576040680100000000162e42ff8202901c90505b6000631000000083161115620011825760406801000000000b17217f8202901c90505b6000630800000083161115620011a5576040680100000000058b90c08202901c90505b6000630400000083161115620011c857604068010000000002c5c8608202901c90505b6000630200000083161115620011eb5760406801000000000162e4308202901c90505b60006301000000831611156200120e57604068010000000000b172188202901c90505b60006280000083161115620012305760406801000000000058b90c8202901c90505b6000624000008316111562001252576040680100000000002c5c868202901c90505b600062200000831611156200127457604068010000000000162e438202901c90505b6000621000008316111562001296576040680100000000000b17218202901c90505b60006208000083161115620012b857604068010000000000058b918202901c90505b60006204000083161115620012da5760406801000000000002c5c88202901c90505b60006202000083161115620012fc576040680100000000000162e48202901c90505b600062010000831611156200131e5760406801000000000000b1728202901c90505b6000618000831611156200133f576040680100000000000058b98202901c90505b6000614000831611156200136057604068010000000000002c5d8202901c90505b600061200083161115620013815760406801000000000000162e8202901c90505b600061100083161115620013a257604068010000000000000b178202901c90505b600061080083161115620013c35760406801000000000000058c8202901c90505b600061040083161115620013e4576040680100000000000002c68202901c90505b60006102008316111562001405576040680100000000000001638202901c90505b60006101008316111562001426576040680100000000000000b18202901c90505b600060808316111562001446576040680100000000000000598202901c90505b6000604083161115620014665760406801000000000000002c8202901c90505b600060208316111562001486576040680100000000000000168202901c90505b6000601083161115620014a65760406801000000000000000b8202901c90505b6000600883161115620014c6576040680100000000000000068202901c90505b6000600483161115620014e6576040680100000000000000038202901c90505b600060028316111562001506576040680100000000000000018202901c90505b600060018316111562001526576040680100000000000000018202901c90505b670de0b6b3a764000081029050604082901c60bf0381901c9050919050565b828054620015539062001b27565b90600052602060002090601f016020900481019282620015775760008555620015c3565b82601f106200159257805160ff1916838001178555620015c3565b82800160010185558215620015c3579182015b82811115620015c2578251825591602001919060010190620015a5565b5b509050620015d29190620015d6565b5090565b5b80821115620015f1576000816000905550600101620015d7565b5090565b6000604051905090565b600080fd5b600080fd5b600080fd5b600080fd5b6000601f19601f8301169050919050565b7f4e487b7100000000000000000000000000000000000000000000000000000000600052604160045260246000fd5b6200165e8262001613565b810181811067ffffffffffffffff8211171562001680576200167f62001624565b5b80604052505050565b600062001695620015f5565b9050620016a3828262001653565b919050565b600067ffffffffffffffff821115620016c657620016c562001624565b5b620016d18262001613565b9050602081019050919050565b60005b83811015620016fe578082015181840152602081019050620016e1565b838111156200170e576000848401525b50505050565b60006200172b6200172584620016a8565b62001689565b9050828152602081018484840111156200174a57620017496200160e565b5b62001757848285620016de565b509392505050565b600082601f83011262001777576200177662001609565b5b81516200178984826020860162001714565b91505092915050565b6000819050919050565b620017a78162001792565b8114620017b357600080fd5b50565b600081519050620017c7816200179c565b92915050565b600080600080600080600060e0888a031215620017ef57620017ee620015ff565b5b600088015167ffffffffffffffff81111562001810576200180f62001604565b5b6200181e8a828b016200175f565b975050602088015167ffffffffffffffff81111562001842576200184162001604565b5b620018508a828b016200175f565b9650506040620018638a828b01620017b6565b9550506060620018768a828b01620017b6565b9450506080620018898a828b01620017b6565b93505060a06200189c8a828b01620017b6565b92505060c0620018af8a828b01620017b6565b91505092959891949750929550565b7f4e487b7100000000000000000000000000000000000000000000000000000000600052601160045260246000fd5b6000620018fa8262001792565b91507f800000000000000000000000000000000000000000000000000000000000000082141562001930576200192f620018be565b5b816000039050919050565b6000620019488262001792565b9150620019558362001792565b9250827f800000000000000000000000000000000000000000000000000000000000000001821260008412151615620019935762001992620018be565b5b827f7fffffffffffffffffffffffffffffffffffffffffffffffffffffffffffffff018213600084121615620019ce57620019cd620018be565b5b828203905092915050565b7f4e487b7100000000000000000000000000000000000000000000000000000000600052601260045260246000fd5b62001a138162001792565b82525050565b600060208201905062001a30600083018462001a08565b92915050565b6000819050919050565b62001a4b8162001a36565b82525050565b600060208201905062001a68600083018462001a40565b92915050565b600060408201905062001a85600083018562001a40565b62001a94602083018462001a40565b9392505050565b600062001aa88262001a36565b915062001ab58362001a36565b9250827fffffffffffffffffffffffffffffffffffffffffffffffffffffffffffffffff0382111562001aed5762001aec620018be565b5b828201905092915050565b7f4e487b7100000000000000000000000000000000000000000000000000000000600052602260045260246000fd5b6000600282049050600182168062001b4057607f821691505b6020821081141562001b575762001b5662001af8565b5b50919050565b60805160a05160c05160e051613c3862001bc1600039600081816115ee01526126a3015260008181610fb101526113960152600081816107090152818161111801526129c0015260008181610f660152818161101b01526129670152613c386000f3fe6080604052600436106101815760003560e01c806370a08231116100d1578063b88d4fde1161008a578063d85d3d2711610064578063d85d3d271461059a578063da41672f146105b6578063df1cb687146105e1578063e985e9c51461060c57610181565b8063b88d4fde14610509578063c4108ccd14610532578063c87b56dd1461055d57610181565b806370a08231146103f757806395d89b411461043457806396d4fc201461045f57806398d5fdca1461048a578063a17716ac146104b5578063a22cb465146104e057610181565b806323b872dd1161013e578063468fe84811610118578063468fe8481461032757806346a76370146103645780634eebd25f1461038f5780636352211e146103ba57610181565b806323b872dd146102aa578063247bfb06146102d357806342842e0e146102fe57610181565b806301ffc9a71461018657806305c8c51f146101c357806306e32b64146101ee57806306fdde0314610219578063081812fc14610244578063095ea7b314610281575b600080fd5b34801561019257600080fd5b506101ad60048036038101906101a89190612eea565b610649565b6040516101ba9190612f32565b60405180910390f35b3480156101cf57600080fd5b506101d86106db565b6040516101e59190612f66565b60405180910390f35b3480156101fa57600080fd5b506102036106e1565b6040516102109190612f9a565b60405180910390f35b34801561022557600080fd5b5061022e610776565b60405161023b919061304e565b60405180910390f35b34801561025057600080fd5b5061026b6004803603810190610266919061309c565b610804565b604051610278919061310a565b60405180910390f35b34801561028d57600080fd5b506102a860048036038101906102a39190613151565b610837565b005b3480156102b657600080fd5b506102d160048036038101906102cc9190613191565b610a20565b005b3480156102df57600080fd5b506102e8610e20565b6040516102f59190612f66565b60405180910390f35b34801561030a57600080fd5b5061032560048036038101906103209190613191565b610e26565b005b34801561033357600080fd5b5061034e60048036038101906103499190613210565b610f5e565b60405161035b9190612f9a565b60405180910390f35b34801561037057600080fd5b50610379611013565b6040516103869190612f9a565b60405180910390f35b34801561039b57600080fd5b506103a4611019565b6040516103b19190612f9a565b60405180910390f35b3480156103c657600080fd5b506103e160048036038101906103dc919061309c565b61103d565b6040516103ee919061310a565b60405180910390f35b34801561040357600080fd5b5061041e6004803603810190610419919061323d565b611070565b60405161042b9190612f66565b60405180910390f35b34801561044057600080fd5b50610449611088565b604051610456919061304e565b60405180910390f35b34801561046b57600080fd5b50610474611116565b6040516104819190612f9a565b60405180910390f35b34801561049657600080fd5b5061049f61113a565b6040516104ac9190612f66565b60405180910390f35b3480156104c157600080fd5b506104ca611156565b6040516104d79190612f9a565b60405180910390f35b3480156104ec57600080fd5b5061050760048036038101906105029190613296565b61115c565b005b34801561051557600080fd5b50610530600480360381019061052b919061340b565b611259565b005b34801561053e57600080fd5b50610547611394565b6040516105549190612f9a565b60405180910390f35b34801561056957600080fd5b50610584600480360381019061057f919061309c565b6113b8565b604051610591919061304e565b60405180910390f35b6105b460048036038101906105af919061352f565b611463565b005b3480156105c257600080fd5b506105cb6115e6565b6040516105d89190612f66565b60405180910390f35b3480156105ed57600080fd5b506105f66115ec565b6040516106039190612f9a565b60405180910390f35b34801561061857600080fd5b50610633600480360381019061062e9190613578565b611610565b6040516106409190612f32565b60405180910390f35b60006301ffc9a760e01b827bffffffffffffffffffffffffffffffffffffffffffffffffffffffff191614806106a457506380ac58cd60e01b827bffffffffffffffffffffffffffffffffffffffffffffffffffffffff1916145b806106d45750635b5e139f60e01b827bffffffffffffffffffffffffffffffffffffffffffffffffffffffff1916145b9050919050565b60075481565b600080600754436106f291906135e7565b90506106fd8161163f565b905060006107586107377f00000000000000000000000000000000000000000000000000000000000000008461174d90919063ffffffff16565b6107409061361b565b61074a600261163f565b6118b990919063ffffffff16565b905061076f81600a5461250d90919063ffffffff16565b9250505090565b6000805461078390613693565b80601f01602080910402602001604051908101604052809291908181526020018280546107af90613693565b80156107fc5780601f106107d1576101008083540402835291602001916107fc565b820191906000526020600020905b8154815290600101906020018083116107df57829003601f168201915b505050505081565b60056020528060005260406000206000915054906101000a900473ffffffffffffffffffffffffffffffffffffffff1681565b60006004600083815260200190815260200160002060009054906101000a900473ffffffffffffffffffffffffffffffffffffffff1690508073ffffffffffffffffffffffffffffffffffffffff163373ffffffffffffffffffffffffffffffffffffffff16148061092f5750600660008273ffffffffffffffffffffffffffffffffffffffff1673ffffffffffffffffffffffffffffffffffffffff16815260200190815260200160002060003373ffffffffffffffffffffffffffffffffffffffff1673ffffffffffffffffffffffffffffffffffffffff16815260200190815260200160002060009054906101000a900460ff165b61096e576040517f08c379a000000000000000000000000000000000000000000000000000000000815260040161096590613711565b60405180910390fd5b826005600084815260200190815260200160002060006101000a81548173ffffffffffffffffffffffffffffffffffffffff021916908373ffffffffffffffffffffffffffffffffffffffff160217905550818373ffffffffffffffffffffffffffffffffffffffff168273ffffffffffffffffffffffffffffffffffffffff167f8c5be1e5ebec7d5bd14f71427d1e84f3dd0314c0f7b2291e5b200ac8c7c3b92560405160405180910390a4505050565b6004600082815260200190815260200160002060009054906101000a900473ffffffffffffffffffffffffffffffffffffffff1673ffffffffffffffffffffffffffffffffffffffff168373ffffffffffffffffffffffffffffffffffffffff1614610ac1576040517f08c379a0000000000000000000000000000000000000000000000000000000008152600401610ab89061377d565b60405180910390fd5b600073ffffffffffffffffffffffffffffffffffffffff168273ffffffffffffffffffffffffffffffffffffffff161415610b31576040517f08c379a0000000000000000000000000000000000000000000000000000000008152600401610b28906137e9565b60405180910390fd5b8273ffffffffffffffffffffffffffffffffffffffff163373ffffffffffffffffffffffffffffffffffffffff161480610bc957506005600082815260200190815260200160002060009054906101000a900473ffffffffffffffffffffffffffffffffffffffff1673ffffffffffffffffffffffffffffffffffffffff163373ffffffffffffffffffffffffffffffffffffffff16145b80610c5a5750600660008473ffffffffffffffffffffffffffffffffffffffff1673ffffffffffffffffffffffffffffffffffffffff16815260200190815260200160002060003373ffffffffffffffffffffffffffffffffffffffff1673ffffffffffffffffffffffffffffffffffffffff16815260200190815260200160002060009054906101000a900460ff165b610c99576040517f08c379a0000000000000000000000000000000000000000000000000000000008152600401610c9090613711565b60405180910390fd5b600360008473ffffffffffffffffffffffffffffffffffffffff1673ffffffffffffffffffffffffffffffffffffffff1681526020019081526020016000206000815480929190600190039190505550600360008373ffffffffffffffffffffffffffffffffffffffff1673ffffffffffffffffffffffffffffffffffffffff16815260200190815260200160002060008154809291906001019190505550816004600083815260200190815260200160002060006101000a81548173ffffffffffffffffffffffffffffffffffffffff021916908373ffffffffffffffffffffffffffffffffffffffff1602179055506005600082815260200190815260200160002060006101000a81549073ffffffffffffffffffffffffffffffffffffffff0219169055808273ffffffffffffffffffffffffffffffffffffffff168473ffffffffffffffffffffffffffffffffffffffff167fddf252ad1be2c89b69c2b068fc378daa952ba7f163c4a11628f55a4df523b3ef60405160405180910390a4505050565b60095481565b610e31838383610a20565b60008273ffffffffffffffffffffffffffffffffffffffff163b1480610f1a575063150b7a0260e01b7bffffffffffffffffffffffffffffffffffffffffffffffffffffffff19168273ffffffffffffffffffffffffffffffffffffffff1663150b7a023386856040518463ffffffff1660e01b8152600401610eb693929190613840565b6020604051808303816000875af1158015610ed5573d6000803e3d6000fd5b505050506040513d601f19601f82011682018060405250810190610ef9919061389f565b7bffffffffffffffffffffffffffffffffffffffffffffffffffffffff1916145b610f59576040517f08c379a0000000000000000000000000000000000000000000000000000000008152600401610f5090613918565b60405180910390fd5b505050565b600080610f967f0000000000000000000000000000000000000000000000000000000000000000600a5461174d90919063ffffffff16565b9050610fa2600161163f565b81131561100957611002610fdf7f00000000000000000000000000000000000000000000000000000000000000008361250d90919063ffffffff16565b610fe9600161163f565b610ff39190613938565b8461250d90919063ffffffff16565b915061100d565b8291505b50919050565b600b5481565b7f000000000000000000000000000000000000000000000000000000000000000081565b60046020528060005260406000206000915054906101000a900473ffffffffffffffffffffffffffffffffffffffff1681565b60036020528060005260406000206000915090505481565b6001805461109590613693565b80601f01602080910402602001604051908101604052809291908181526020018280546110c190613693565b801561110e5780601f106110e35761010080835404028352916020019161110e565b820191906000526020600020905b8154815290600101906020018083116110f157829003601f168201915b505050505081565b7f000000000000000000000000000000000000000000000000000000000000000081565b60008061114561266a565b9050611150816126fe565b91505090565b600a5481565b80600660003373ffffffffffffffffffffffffffffffffffffffff1673ffffffffffffffffffffffffffffffffffffffff16815260200190815260200160002060008473ffffffffffffffffffffffffffffffffffffffff1673ffffffffffffffffffffffffffffffffffffffff16815260200190815260200160002060006101000a81548160ff0219169083151502179055508173ffffffffffffffffffffffffffffffffffffffff163373ffffffffffffffffffffffffffffffffffffffff167f17307eab39ab6107e8899845ad3d59bd9653f200f220920489ca2b5937696c318360405161124d9190612f32565b60405180910390a35050565b611264848484610a20565b60008373ffffffffffffffffffffffffffffffffffffffff163b148061134f575063150b7a0260e01b7bffffffffffffffffffffffffffffffffffffffffffffffffffffffff19168373ffffffffffffffffffffffffffffffffffffffff1663150b7a02338786866040518563ffffffff1660e01b81526004016112eb9493929190613a10565b6020604051808303816000875af115801561130a573d6000803e3d6000fd5b505050506040513d601f19601f8201168201806040525081019061132e919061389f565b7bffffffffffffffffffffffffffffffffffffffffffffffffffffffff1916145b61138e576040517f08c379a000000000000000000000000000000000000000000000000000000000815260040161138590613918565b60405180910390fd5b50505050565b7f000000000000000000000000000000000000000000000000000000000000000081565b606060006002600084815260200190815260200160002080546113da90613693565b80601f016020809104026020016040519081016040528092919081815260200182805461140690613693565b80156114535780601f1061142857610100808354040283529160200191611453565b820191906000526020600020905b81548152906001019060200180831161143657829003601f168201915b5050505050905080915050919050565b600061146d61266a565b9050600061147a826126fe565b9050803410156114b6576040517fcd1c886700000000000000000000000000000000000000000000000000000000815260040160405180910390fd5b6000600960008154809291906114cb90613a5c565b9190505590506114db3382612720565b6114e58185612933565b6114ef600161163f565b6114f76106e1565b6115019190613938565b600a8190555061151083610f5e565b600b8190555061151e61295f565b600881905550436007819055506000823461153991906135e7565b905060003373ffffffffffffffffffffffffffffffffffffffff168260405161156190613ad3565b60006040518083038185875af1925050503d806000811461159e576040519150601f19603f3d011682016040523d82523d6000602084013e6115a3565b606091505b50509050806115de576040517fdcf35db000000000000000000000000000000000000000000000000000000000815260040160405180910390fd5b505050505050565b60085481565b7f000000000000000000000000000000000000000000000000000000000000000081565b60066020528160005260406000206020528060005260406000206000915091509054906101000a900460ff1681565b6000670de0b6b3a76400007f80000000000000000000000000000000000000000000000000000000000000008161167957611678613ae8565b5b058212156116be57816040517fe608e18b0000000000000000000000000000000000000000000000000000000081526004016116b59190612f9a565b60405180910390fd5b670de0b6b3a76400007f7fffffffffffffffffffffffffffffffffffffffffffffffffffffffffffffff816116f6576116f5613ae8565b5b0582131561173b57816040517f71f72a310000000000000000000000000000000000000000000000000000000081526004016117329190612f9a565b60405180910390fd5b670de0b6b3a764000082029050919050565b60007f800000000000000000000000000000000000000000000000000000000000000083148061179c57507f800000000000000000000000000000000000000000000000000000000000000082145b156117d3576040517fb3c754a300000000000000000000000000000000000000000000000000000000815260040160405180910390fd5b600080600085126117e457846117e9565b846000035b9150600084126117f957836117fe565b836000035b9050600061181583670de0b6b3a764000084611906565b90507f7fffffffffffffffffffffffffffffffffffffffffffffffffffffffffffffff81111561187c57806040517f7cb4bef50000000000000000000000000000000000000000000000000000000081526004016118739190612f66565b60405180910390fd5b6000806001600003881391506001600003871390506001818318146118a157826118ac565b826118ab9061361b565b5b9550505050505092915050565b6000808314156118e357600082146118d25760006118dc565b670de0b6b3a76400005b9050611900565b6118fd6118f86118f285612a15565b8461250d565b612b72565b90505b92915050565b6000806000801985870985870292508281108382030391505060008114156119425783828161193857611937613ae8565b5b0492505050611a15565b8381106119885780846040517f773cc18c00000000000000000000000000000000000000000000000000000000815260040161197f929190613b17565b60405180910390fd5b60008486880990508281118203915080830392506000600186190186169050808604955080840493506001818260000304019050808302841793506000600287600302189050808702600203810290508087026002038102905080870260020381029050808702600203810290508087026002038102905080870260020381029050808502955050505050505b9392505050565b60007001000000000000000000000000000000008210611a4d57608082901c9150608081611a4a9190613b40565b90505b680100000000000000008210611a7457604082901c9150604081611a719190613b40565b90505b6401000000008210611a9757602082901c9150602081611a949190613b40565b90505b620100008210611ab857601082901c9150601081611ab59190613b40565b90505b6101008210611ad857600882901c9150600881611ad59190613b40565b90505b60108210611af757600482901c9150600481611af49190613b40565b90505b60048210611b1657600282901c9150600281611b139190613b40565b90505b60028210611b2e57600181611b2b9190613b40565b90505b919050565b60008060008019848609848602925082811083820303915050670de0b6b3a76400008110611b9857806040517fd31b3402000000000000000000000000000000000000000000000000000000008152600401611b8f9190612f66565b60405180910390fd5b600080670de0b6b3a764000086880991506706f05b59d3b1ffff821190506000831415611be55780670de0b6b3a76400008581611bd857611bd7613ae8565b5b0401945050505050611c2b565b807faccb18165bd6fe31ae1cf318dc5b51eee0e1ba569b88cd74c1773b91fac1066960016204000080600003040186851186030262040000858803041702019450505050505b92915050565b6000778000000000000000000000000000000000000000000000009050600067800000000000000083161115611c7457604068016a09e667f3bcc9098202901c90505b600067400000000000000083161115611c9a5760406801306fe0a31b7152df8202901c90505b600067200000000000000083161115611cc05760406801172b83c7d517adce8202901c90505b600067100000000000000083161115611ce657604068010b5586cf9890f62a8202901c90505b600067080000000000000083161115611d0c5760406801059b0d31585743ae8202901c90505b600067040000000000000083161115611d32576040680102c9a3e778060ee78202901c90505b600067020000000000000083161115611d5857604068010163da9fb33356d88202901c90505b600067010000000000000083161115611d7e576040680100b1afa5abcbed618202901c90505b6000668000000000000083161115611da357604068010058c86da1c09ea28202901c90505b6000664000000000000083161115611dc85760406801002c605e2e8cec508202901c90505b6000662000000000000083161115611ded576040680100162f3904051fa18202901c90505b6000661000000000000083161115611e125760406801000b175effdc76ba8202901c90505b6000660800000000000083161115611e37576040680100058ba01fb9f96d8202901c90505b6000660400000000000083161115611e5c57604068010002c5cc37da94928202901c90505b6000660200000000000083161115611e815760406801000162e525ee05478202901c90505b6000660100000000000083161115611ea657604068010000b17255775c048202901c90505b60006580000000000083161115611eca5760406801000058b91b5bc9ae8202901c90505b60006540000000000083161115611eee576040680100002c5c89d5ec6d8202901c90505b60006520000000000083161115611f1257604068010000162e43f4f8318202901c90505b60006510000000000083161115611f36576040680100000b1721bcfc9a8202901c90505b60006508000000000083161115611f5a57604068010000058b90cf1e6e8202901c90505b60006504000000000083161115611f7e5760406801000002c5c863b73f8202901c90505b60006502000000000083161115611fa2576040680100000162e430e5a28202901c90505b60006501000000000083161115611fc65760406801000000b1721835518202901c90505b600064800000000083161115611fe9576040680100000058b90c0b498202901c90505b60006440000000008316111561200c57604068010000002c5c8601cc8202901c90505b60006420000000008316111561202f5760406801000000162e42fff08202901c90505b60006410000000008316111561205257604068010000000b17217fbb8202901c90505b6000640800000000831611156120755760406801000000058b90bfce8202901c90505b600064040000000083161115612098576040680100000002c5c85fe38202901c90505b6000640200000000831611156120bb57604068010000000162e42ff18202901c90505b6000640100000000831611156120de576040680100000000b17217f88202901c90505b600063800000008316111561210057604068010000000058b90bfc8202901c90505b60006340000000831611156121225760406801000000002c5c85fe8202901c90505b6000632000000083161115612144576040680100000000162e42ff8202901c90505b60006310000000831611156121665760406801000000000b17217f8202901c90505b6000630800000083161115612188576040680100000000058b90c08202901c90505b60006304000000831611156121aa57604068010000000002c5c8608202901c90505b60006302000000831611156121cc5760406801000000000162e4308202901c90505b60006301000000831611156121ee57604068010000000000b172188202901c90505b6000628000008316111561220f5760406801000000000058b90c8202901c90505b60006240000083161115612230576040680100000000002c5c868202901c90505b6000622000008316111561225157604068010000000000162e438202901c90505b60006210000083161115612272576040680100000000000b17218202901c90505b6000620800008316111561229357604068010000000000058b918202901c90505b600062040000831611156122b45760406801000000000002c5c88202901c90505b600062020000831611156122d5576040680100000000000162e48202901c90505b600062010000831611156122f65760406801000000000000b1728202901c90505b600061800083161115612316576040680100000000000058b98202901c90505b60006140008316111561233657604068010000000000002c5d8202901c90505b6000612000831611156123565760406801000000000000162e8202901c90505b60006110008316111561237657604068010000000000000b178202901c90505b6000610800831611156123965760406801000000000000058c8202901c90505b6000610400831611156123b6576040680100000000000002c68202901c90505b6000610200831611156123d6576040680100000000000001638202901c90505b6000610100831611156123f6576040680100000000000000b18202901c90505b6000608083161115612415576040680100000000000000598202901c90505b60006040831611156124345760406801000000000000002c8202901c90505b6000602083161115612453576040680100000000000000168202901c90505b60006010831611156124725760406801000000000000000b8202901c90505b6000600883161115612491576040680100000000000000068202901c90505b60006004831611156124b0576040680100000000000000038202901c90505b60006002831611156124cf576040680100000000000000018202901c90505b60006001831611156124ee576040680100000000000000018202901c90505b670de0b6b3a764000081029050604082901c60bf0381901c9050919050565b60007f800000000000000000000000000000000000000000000000000000000000000083148061255c57507f800000000000000000000000000000000000000000000000000000000000000082145b15612593576040517f3406846c00000000000000000000000000000000000000000000000000000000815260040160405180910390fd5b600080600085126125a457846125a9565b846000035b9150600084126125b957836125be565b836000035b905060006125cc8383611b33565b90507f7fffffffffffffffffffffffffffffffffffffffffffffffffffffffffffffff81111561263357806040517fbf79e8d900000000000000000000000000000000000000000000000000000000815260040161262a9190612f66565b60405180910390fd5b600080600160000388139150600160000387139050600181831814612658578261265d565b826000035b9550505050505092915050565b6000600854431161267f57600b5490506126fb565b60006126976008544361269291906135e7565b61163f565b905060006126df6126da7f0000000000000000000000000000000000000000000000000000000000000000846126cc9061361b565b61174d90919063ffffffff16565b612c60565b90506126f681600b5461250d90919063ffffffff16565b925050505b90565b6000670de0b6b3a7640000828161271857612717613ae8565b5b059050919050565b600073ffffffffffffffffffffffffffffffffffffffff168273ffffffffffffffffffffffffffffffffffffffff161415612790576040517f08c379a0000000000000000000000000000000000000000000000000000000008152600401612787906137e9565b60405180910390fd5b600073ffffffffffffffffffffffffffffffffffffffff166004600083815260200190815260200160002060009054906101000a900473ffffffffffffffffffffffffffffffffffffffff1673ffffffffffffffffffffffffffffffffffffffff1614612832576040517f08c379a000000000000000000000000000000000000000000000000000000000815260040161282990613be2565b60405180910390fd5b600360008373ffffffffffffffffffffffffffffffffffffffff1673ffffffffffffffffffffffffffffffffffffffff16815260200190815260200160002060008154809291906001019190505550816004600083815260200190815260200160002060006101000a81548173ffffffffffffffffffffffffffffffffffffffff021916908373ffffffffffffffffffffffffffffffffffffffff160217905550808273ffffffffffffffffffffffffffffffffffffffff16600073ffffffffffffffffffffffffffffffffffffffff167fddf252ad1be2c89b69c2b068fc378daa952ba7f163c4a11628f55a4df523b3ef60405160405180910390a45050565b8060026000848152602001908152602001600020908051906020019061295a929190612ddb565b505050565b6000806129977f0000000000000000000000000000000000000000000000000000000000000000600a5461174d90919063ffffffff16565b90506129a3600161163f565b811315612a0d5760006129f76129f26129ed6129be85612a15565b7f000000000000000000000000000000000000000000000000000000000000000061250d90919063ffffffff16565b612d23565b6126fe565b90508043612a059190613b40565b925050612a11565b4391505b5090565b6000808213612a5b57816040517f613f4fba000000000000000000000000000000000000000000000000000000008152600401612a529190612f9a565b60405180910390fd5b6000670de0b6b3a76400008312612a755760019050612aad565b7fffffffffffffffffffffffffffffffffffffffffffffffffffffffffffffffff9050826ec097ce7bc90715b34b9f10000000000492505b6000612ad0670de0b6b3a76400008581612aca57612ac9613ae8565b5b05611a1c565b9050670de0b6b3a76400008102925060008185901d9050670de0b6b3a7640000811415612b04578284029350505050612b6d565b60006706f05b59d3b2000090505b6000811315612b6357670de0b6b3a764000082830281612b3557612b34613ae8565b5b059150670de0b6b3a76400006002028212612b57578085019450600182901d91505b600181901d9050612b12565b5082840293505050505b919050565b600080821215612bdf577ffffffffffffffffffffffffffffffffffffffffffffffffcc22e87f6eb468eeb821215612bad5760009050612c5b565b612bb982600003612b72565b6ec097ce7bc90715b34b9f100000000081612bd757612bd6613ae8565b5b059050612c5a565b680a688906bd8b0000008212612c2c57816040517fe69458f9000000000000000000000000000000000000000000000000000000008152600401612c239190612f9a565b60405180910390fd5b6000670de0b6b3a7640000604084901b81612c4a57612c49613ae8565b5b049050612c5681611c31565b9150505b5b919050565b60007ffffffffffffffffffffffffffffffffffffffffffffffffdc0d0570925a462ce821215612c935760009050612d1e565b680736ea4425c11ac6318212612ce057816040517f99bb7541000000000000000000000000000000000000000000000000000000008152600401612cd79190612f9a565b60405180910390fd5b60006714057b7ef767814f83029050612d1a670de0b6b3a76400006706f05b59d3b20000830181612d1457612d13613ae8565b5b05612b72565b9150505b919050565b60007f7ffffffffffffffffffffffffffffffffffffffffffffffff5023c9904400000821315612d8a57816040517fa733450a000000000000000000000000000000000000000000000000000000008152600401612d819190612f9a565b60405180910390fd5b6000670de0b6b3a76400008381612da457612da3613ae8565b5b0790506000811415612db857829150612dd5565b80830391506000831315612dd457670de0b6b3a7640000820191505b5b50919050565b828054612de790613693565b90600052602060002090601f016020900481019282612e095760008555612e50565b82601f10612e2257805160ff1916838001178555612e50565b82800160010185558215612e50579182015b82811115612e4f578251825591602001919060010190612e34565b5b509050612e5d9190612e61565b5090565b5b80821115612e7a576000816000905550600101612e62565b5090565b6000604051905090565b600080fd5b600080fd5b60007fffffffff0000000000000000000000000000000000000000000000000000000082169050919050565b612ec781612e92565b8114612ed257600080fd5b50565b600081359050612ee481612ebe565b92915050565b600060208284031215612f0057612eff612e88565b5b6000612f0e84828501612ed5565b91505092915050565b60008115159050919050565b612f2c81612f17565b82525050565b6000602082019050612f476000830184612f23565b92915050565b6000819050919050565b612f6081612f4d565b82525050565b6000602082019050612f7b6000830184612f57565b92915050565b6000819050919050565b612f9481612f81565b82525050565b6000602082019050612faf6000830184612f8b565b92915050565b600081519050919050565b600082825260208201905092915050565b60005b83811015612fef578082015181840152602081019050612fd4565b83811115612ffe576000848401525b50505050565b6000601f19601f8301169050919050565b600061302082612fb5565b61302a8185612fc0565b935061303a818560208601612fd1565b61304381613004565b840191505092915050565b600060208201905081810360008301526130688184613015565b905092915050565b61307981612f4d565b811461308457600080fd5b50565b60008135905061309681613070565b92915050565b6000602082840312156130b2576130b1612e88565b5b60006130c084828501613087565b91505092915050565b600073ffffffffffffffffffffffffffffffffffffffff82169050919050565b60006130f4826130c9565b9050919050565b613104816130e9565b82525050565b600060208201905061311f60008301846130fb565b92915050565b61312e816130e9565b811461313957600080fd5b50565b60008135905061314b81613125565b92915050565b6000806040838503121561316857613167612e88565b5b60006131768582860161313c565b925050602061318785828601613087565b9150509250929050565b6000806000606084860312156131aa576131a9612e88565b5b60006131b88682870161313c565b93505060206131c98682870161313c565b92505060406131da86828701613087565b9150509250925092565b6131ed81612f81565b81146131f857600080fd5b50565b60008135905061320a816131e4565b92915050565b60006020828403121561322657613225612e88565b5b6000613234848285016131fb565b91505092915050565b60006020828403121561325357613252612e88565b5b60006132618482850161313c565b91505092915050565b61327381612f17565b811461327e57600080fd5b50565b6000813590506132908161326a565b92915050565b600080604083850312156132ad576132ac612e88565b5b60006132bb8582860161313c565b92505060206132cc85828601613281565b9150509250929050565b600080fd5b600080fd5b7f4e487b7100000000000000000000000000000000000000000000000000000000600052604160045260246000fd5b61331882613004565b810181811067ffffffffffffffff82111715613337576133366132e0565b5b80604052505050565b600061334a612e7e565b9050613356828261330f565b919050565b600067ffffffffffffffff821115613376576133756132e0565b5b61337f82613004565b9050602081019050919050565b82818337600083830152505050565b60006133ae6133a98461335b565b613340565b9050828152602081018484840111156133ca576133c96132db565b5b6133d584828561338c565b509392505050565b600082601f8301126133f2576133f16132d6565b5b813561340284826020860161339b565b91505092915050565b6000806000806080858703121561342557613424612e88565b5b60006134338782880161313c565b94505060206134448782880161313c565b935050604061345587828801613087565b925050606085013567ffffffffffffffff81111561347657613475612e8d565b5b613482878288016133dd565b91505092959194509250565b600067ffffffffffffffff8211156134a9576134a86132e0565b5b6134b282613004565b9050602081019050919050565b60006134d26134cd8461348e565b613340565b9050828152602081018484840111156134ee576134ed6132db565b5b6134f984828561338c565b509392505050565b600082601f830112613516576135156132d6565b5b81356135268482602086016134bf565b91505092915050565b60006020828403121561354557613544612e88565b5b600082013567ffffffffffffffff81111561356357613562612e8d565b5b61356f84828501613501565b91505092915050565b6000806040838503121561358f5761358e612e88565b5b600061359d8582860161313c565b92505060206135ae8582860161313c565b9150509250929050565b7f4e487b7100000000000000000000000000000000000000000000000000000000600052601160045260246000fd5b60006135f282612f4d565b91506135fd83612f4d565b9250828210156136105761360f6135b8565b5b828203905092915050565b600061362682612f81565b91507f8000000000000000000000000000000000000000000000000000000000000000821415613659576136586135b8565b5b816000039050919050565b7f4e487b7100000000000000000000000000000000000000000000000000000000600052602260045260246000fd5b600060028204905060018216806136ab57607f821691505b602082108114156136bf576136be613664565b5b50919050565b7f4e4f545f415554484f52495a4544000000000000000000000000000000000000600082015250565b60006136fb600e83612fc0565b9150613706826136c5565b602082019050919050565b6000602082019050818103600083015261372a816136ee565b9050919050565b7f57524f4e475f46524f4d00000000000000000000000000000000000000000000600082015250565b6000613767600a83612fc0565b915061377282613731565b602082019050919050565b600060208201905081810360008301526137968161375a565b9050919050565b7f494e56414c49445f524543495049454e54000000000000000000000000000000600082015250565b60006137d3601183612fc0565b91506137de8261379d565b602082019050919050565b60006020820190508181036000830152613802816137c6565b9050919050565b600082825260208201905092915050565b50565b600061382a600083613809565b91506138358261381a565b600082019050919050565b600060808201905061385560008301866130fb565b61386260208301856130fb565b61386f6040830184612f57565b81810360608301526138808161381d565b9050949350505050565b60008151905061389981612ebe565b92915050565b6000602082840312156138b5576138b4612e88565b5b60006138c38482850161388a565b91505092915050565b7f554e534146455f524543495049454e5400000000000000000000000000000000600082015250565b6000613902601083612fc0565b915061390d826138cc565b602082019050919050565b60006020820190508181036000830152613931816138f5565b9050919050565b600061394382612f81565b915061394e83612f81565b9250817f7fffffffffffffffffffffffffffffffffffffffffffffffffffffffffffffff03831360008312151615613989576139886135b8565b5b817f80000000000000000000000000000000000000000000000000000000000000000383126000831216156139c1576139c06135b8565b5b828201905092915050565b600081519050919050565b60006139e2826139cc565b6139ec8185613809565b93506139fc818560208601612fd1565b613a0581613004565b840191505092915050565b6000608082019050613a2560008301876130fb565b613a3260208301866130fb565b613a3f6040830185612f57565b8181036060830152613a5181846139d7565b905095945050505050565b6000613a6782612f4d565b91507fffffffffffffffffffffffffffffffffffffffffffffffffffffffffffffffff821415613a9a57613a996135b8565b5b600182019050919050565b600081905092915050565b6000613abd600083613aa5565b9150613ac88261381a565b600082019050919050565b6000613ade82613ab0565b9150819050919050565b7f4e487b7100000000000000000000000000000000000000000000000000000000600052601260045260246000fd5b6000604082019050613b2c6000830185612f57565b613b396020830184612f57565b9392505050565b6000613b4b82612f4d565b9150613b5683612f4d565b9250827fffffffffffffffffffffffffffffffffffffffffffffffffffffffffffffffff03821115613b8b57613b8a6135b8565b5b828201905092915050565b7f414c52454144595f4d494e544544000000000000000000000000000000000000600082015250565b6000613bcc600e83612fc0565b9150613bd782613b96565b602082019050919050565b60006020820190508181036000830152613bfb81613bbf565b905091905056fea2646970667358221220ff662e1026ed410d03db5cb5e746fbd79e4a0af09e4642fd34060ec5ab64ede364736f6c634300080c0033",
  "immutableReferences": {
    "30": [
      {
        "length": 32,
        "start": 3942
      },
      {
        "length": 32,
        "start": 4123
      },
      {
        "length": 32,
        "start": 10599
      }
    ],
    "33": [
      {
        "length": 32,
        "start": 1801
      },
      {
        "length": 32,
        "start": 4376
      },
      {
        "length": 32,
        "start": 10688
      }
    ],
    "36": [
      {
        "length": 32,
        "start": 4017
      },
      {
        "length": 32,
        "start": 5014
      }
    ],
    "39": [
      {
        "length": 32,
        "start": 5614
      },
      {
        "length": 32,
        "start": 9891
      }
    ]
  },
  "source": "// SPDX-License-Identifier: Unlicense\npragma solidity 0.8.12;\n\nimport {ERC721} from \"./ERC721.sol\";\nimport {PRBMathSD59x18} from \"./libs/PRBMathSD59x18.sol\";\n\n///@notice CRISP -- a mechanism to sell NFTs continuously at a targeted rate over time\ncontract CRISP is ERC721 {\n    using PRBMathSD59x18 for int256;\n\n    /// ---------------------------\n    /// ------- CRISP STATE -------\n    /// ---------------------------\n\n    ///@notice block on which last purchase occured\n    uint256 public lastPurchaseBlock;\n\n    ///@notice block on which we start decaying price\n    uint256 public priceDecayStartBlock;\n\n    ///@notice last minted token ID\n    uint256 public curTokenId = 0;\n\n    ///@notice Starting EMS, before time decay. 59.18-decimal fixed-point\n    int256 public nextPurchaseStartingEMS;\n\n    ///@notice Starting price for next purchase, before time decay. 59.18-decimal fixed-point\n    int256 public nextPurchaseStartingPrice;\n\n    /// ---------------------------\n    /// ---- CRISP PARAMETERS -----\n    /// ---------------------------\n\n    ///@notice EMS target. 59.18-decimal fixed-point\n    int256 public immutable targetEMS;\n\n    ///@notice controls decay of sales in EMS. 59.18-decimal fixed-point\n    int256 public immutable saleHalflife;\n\n    ///@notice controls upward price movement. 59.18-decimal fixed-point\n    int256 public immutable priceSpeed;\n\n    ///@notice controls price decay. 59.18-decimal fixed-point\n    int256 public immutable priceHalflife;\n\n    /// ---------------------------\n    /// ------- ERRORS  -----------\n    /// ---------------------------\n\n    error InsufficientPayment();\n\n    error FailedToSendEther();\n\n    constructor(\n        string memory _name,\n        string memory _symbol,\n        int256 _targetBlocksPerSale,\n        int256 _saleHalflife,\n        int256 _priceSpeed,\n        int256 _priceHalflife,\n        int256 _startingPrice\n    ) ERC721(_name, _symbol) {\n        lastPurchaseBlock = block.number;\n        priceDecayStartBlock = block.number;\n\n        saleHalflife = PRBMathSD59x18.fromInt(_saleHalflife);\n        priceSpeed = PRBMathSD59x18.fromInt(_priceSpeed);\n        priceHalflife = PRBMathSD59x18.fromInt(_priceHalflife);\n\n        //calculate target EMS from target blocks per sale\n        targetEMS = PRBMathSD59x18.fromInt(1).div(\n            PRBMathSD59x18.fromInt(1) -\n                PRBMathSD59x18.fromInt(2).pow(\n                    -PRBMathSD59x18.fromInt(_targetBlocksPerSale).div(\n                        saleHalflife\n                    )\n                )\n        );\n\n        nextPurchaseStartingEMS = targetEMS;\n\n        nextPurchaseStartingPrice = PRBMathSD59x18.fromInt(\n            int256(_startingPrice)\n        );\n    }\n\n    ///@notice get current EMS based on block number. Returns 59.18-decimal fixed-point\n    function getCurrentEMS() public view returns (int256 result) {\n        int256 blockInterval = int256(block.number - lastPurchaseBlock);\n        blockInterval = blockInterval.fromInt();\n        int256 weightOnPrev = PRBMathSD59x18.fromInt(2).pow(\n            -blockInterval.div(saleHalflife)\n        );\n        result = nextPurchaseStartingEMS.mul(weightOnPrev);\n    }\n\n    ///@notice get quote for purchasing in current block, decaying price as needed. Returns 59.18-decimal fixed-point\n    function getQuote() internal view returns (int256 result) {\n        if (block.number <= priceDecayStartBlock) {\n            result = nextPurchaseStartingPrice;\n        }\n        //decay price if we are past decay start block\n        else {\n            int256 decayInterval = int256(block.number - priceDecayStartBlock)\n                .fromInt();\n            int256 decay = (-decayInterval).div(priceHalflife).exp();\n            result = nextPurchaseStartingPrice.mul(decay);\n        }\n    }\n\n    ///@notice get quote for purchasing in current block, decaying price as needed. Returns uint256\n    function getPrice() public view returns (uint256 result) {\n        int256 price = getQuote(); // 59.18-decimal fixed-point\n        result = uint256(price.toInt());\n    }\n\n    ///@notice Get starting price for next purchase before time decay. Returns 59.18-decimal fixed-point\n    function getNextStartingPrice(int256 lastPurchasePrice)\n        public\n        view\n        returns (int256 result)\n    {\n        int256 mismatchRatio = nextPurchaseStartingEMS.div(targetEMS);\n        if (mismatchRatio > PRBMathSD59x18.fromInt(1)) {\n            result = lastPurchasePrice.mul(\n                PRBMathSD59x18.fromInt(1) + mismatchRatio.mul(priceSpeed)\n            );\n        } else {\n            result = lastPurchasePrice;\n        }\n    }\n\n    ///@notice Find block in which time based price decay should start\n    function getPriceDecayStartBlock() internal view returns (uint256 result) {\n        int256 mismatchRatio = nextPurchaseStartingEMS.div(targetEMS);\n        //if mismatch ratio above 1, decay should start in future\n        if (mismatchRatio > PRBMathSD59x18.fromInt(1)) {\n            uint256 decayInterval = uint256(\n                saleHalflife.mul(mismatchRatio.log2()).ceil().toInt()\n            );\n            result = block.number + decayInterval;\n        }\n        //else decay should start at the current block\n        else {\n            result = block.number;\n        }\n    }\n\n    ///@notice Pay current price and mint new NFT\n    function mint(string memory uri) public payable {\n        int256 price = getQuote();\n        uint256 priceScaled = uint256(price.toInt());\n        if (msg.value < priceScaled) {\n            revert InsufficientPayment();\n        }\n\n        uint256 id = curTokenId++;\n\n        _mint(msg.sender, id);\n        _setTokenURI(id, uri);\n\n        //update state\n        nextPurchaseStartingEMS = getCurrentEMS() + PRBMathSD59x18.fromInt(1);\n        nextPurchaseStartingPrice = getNextStartingPrice(price);\n        priceDecayStartBlock = getPriceDecayStartBlock();\n        lastPurchaseBlock = block.number;\n\n        //issue refund\n        uint256 refund = msg.value - priceScaled;\n        (bool sent, ) = msg.sender.call{value: refund}(\"\");\n        if (!sent) {\n            revert FailedToSendEther();\n        }\n    }\n}\n",
  "sourcePath": "/app/contracts/CRISP.sol",
  "compiler": {
    "name": "solc",
    "version": "0.8.12+commit.f00d7308.Emscripten.clang"
  },
  "schemaVersion": "3.4.5",
  "updatedAt": "2022-03-18T16:36:23.721Z",
  "networkType": "ethereum",
  "devdoc": {
    "kind": "dev",
    "methods": {},
    "version": 1
  },
  "userdoc": {
    "errors": {
      "InsufficientPayment()": [
        {
          "notice": "--------------------------- ------- ERRORS  ----------- ---------------------------"
        }
      ],
      "PRBMathSD59x18__CeilOverflow(int256)": [
        {
          "notice": "Emitted when ceiling a number overflows SD59x18."
        }
      ],
      "PRBMathSD59x18__DivInputTooSmall()": [
        {
          "notice": "Emitted when one of the inputs is MIN_SD59x18."
        }
      ],
      "PRBMathSD59x18__DivOverflow(uint256)": [
        {
          "notice": "Emitted when one of the intermediary unsigned results overflows SD59x18."
        }
      ],
      "PRBMathSD59x18__Exp2InputTooBig(int256)": [
        {
          "notice": "Emitted when the input is greater than 192."
        }
      ],
      "PRBMathSD59x18__ExpInputTooBig(int256)": [
        {
          "notice": "Emitted when the input is greater than 133.084258667509499441."
        }
      ],
      "PRBMathSD59x18__FromIntOverflow(int256)": [
        {
          "notice": "Emitted when converting a basic integer to the fixed-point format overflows SD59x18."
        }
      ],
      "PRBMathSD59x18__FromIntUnderflow(int256)": [
        {
          "notice": "Emitted when converting a basic integer to the fixed-point format underflows SD59x18."
        }
      ],
      "PRBMathSD59x18__LogInputTooSmall(int256)": [
        {
          "notice": "Emitted when the input is less than or equal to zero."
        }
      ],
      "PRBMathSD59x18__MulInputTooSmall()": [
        {
          "notice": "Emitted when one of the inputs is MIN_SD59x18."
        }
      ],
      "PRBMathSD59x18__MulOverflow(uint256)": [
        {
          "notice": "Emitted when the intermediary absolute result overflows SD59x18."
        }
      ],
      "PRBMath__MulDivFixedPointOverflow(uint256)": [
        {
          "notice": "Emitted when the result overflows uint256."
        }
      ],
      "PRBMath__MulDivOverflow(uint256,uint256)": [
        {
          "notice": "Emitted when the result overflows uint256."
        }
      ]
    },
    "kind": "user",
    "methods": {
      "curTokenId()": {
        "notice": "last minted token ID"
      },
      "getCurrentEMS()": {
        "notice": "get current EMS based on block number. Returns 59.18-decimal fixed-point"
      },
      "getNextStartingPrice(int256)": {
        "notice": "Get starting price for next purchase before time decay. Returns 59.18-decimal fixed-point"
      },
      "getPrice()": {
        "notice": "get quote for purchasing in current block, decaying price as needed. Returns uint256"
      },
      "lastPurchaseBlock()": {
        "notice": "block on which last purchase occured"
      },
      "mint(string)": {
        "notice": "Pay current price and mint new NFT"
      },
      "nextPurchaseStartingEMS()": {
        "notice": "Starting EMS, before time decay. 59.18-decimal fixed-point"
      },
      "nextPurchaseStartingPrice()": {
        "notice": "Starting price for next purchase, before time decay. 59.18-decimal fixed-point"
      },
      "priceDecayStartBlock()": {
        "notice": "block on which we start decaying price"
      },
      "priceHalflife()": {
        "notice": "controls price decay. 59.18-decimal fixed-point"
      },
      "priceSpeed()": {
        "notice": "controls upward price movement. 59.18-decimal fixed-point"
      },
      "saleHalflife()": {
        "notice": "controls decay of sales in EMS. 59.18-decimal fixed-point"
      },
      "targetEMS()": {
        "notice": "EMS target. 59.18-decimal fixed-point"
      }
    },
    "notice": "CRISP -- a mechanism to sell NFTs continuously at a targeted rate over time",
    "version": 1
  }
}