{
  "contractName": "CRISP",
  "abi": [
    {
      "inputs": [
        {
          "internalType": "string",
          "name": "_name",
          "type": "string"
        },
        {
          "internalType": "string",
          "name": "_symbol",
          "type": "string"
        },
        {
          "internalType": "int256",
          "name": "_targetBlocksPerSale",
          "type": "int256"
        },
        {
          "internalType": "int256",
          "name": "_saleHalflife",
          "type": "int256"
        },
        {
          "internalType": "int256",
          "name": "_priceSpeed",
          "type": "int256"
        },
        {
          "internalType": "int256",
          "name": "_priceHalflife",
          "type": "int256"
        },
        {
          "internalType": "int256",
          "name": "_startingPrice",
          "type": "int256"
        }
      ],
      "stateMutability": "nonpayable",
      "type": "constructor"
    },
    {
      "inputs": [],
      "name": "FailedToSendEther",
      "type": "error"
    },
    {
      "inputs": [],
      "name": "InsufficientPayment",
      "type": "error"
    },
    {
      "inputs": [
        {
          "internalType": "int256",
          "name": "x",
          "type": "int256"
        }
      ],
      "name": "PRBMathSD59x18__CeilOverflow",
      "type": "error"
    },
    {
      "inputs": [],
      "name": "PRBMathSD59x18__DivInputTooSmall",
      "type": "error"
    },
    {
      "inputs": [
        {
          "internalType": "uint256",
          "name": "rAbs",
          "type": "uint256"
        }
      ],
      "name": "PRBMathSD59x18__DivOverflow",
      "type": "error"
    },
    {
      "inputs": [
        {
          "internalType": "int256",
          "name": "x",
          "type": "int256"
        }
      ],
      "name": "PRBMathSD59x18__Exp2InputTooBig",
      "type": "error"
    },
    {
      "inputs": [
        {
          "internalType": "int256",
          "name": "x",
          "type": "int256"
        }
      ],
      "name": "PRBMathSD59x18__ExpInputTooBig",
      "type": "error"
    },
    {
      "inputs": [
        {
          "internalType": "int256",
          "name": "x",
          "type": "int256"
        }
      ],
      "name": "PRBMathSD59x18__FromIntOverflow",
      "type": "error"
    },
    {
      "inputs": [
        {
          "internalType": "int256",
          "name": "x",
          "type": "int256"
        }
      ],
      "name": "PRBMathSD59x18__FromIntUnderflow",
      "type": "error"
    },
    {
      "inputs": [
        {
          "internalType": "int256",
          "name": "x",
          "type": "int256"
        }
      ],
      "name": "PRBMathSD59x18__LogInputTooSmall",
      "type": "error"
    },
    {
      "inputs": [],
      "name": "PRBMathSD59x18__MulInputTooSmall",
      "type": "error"
    },
    {
      "inputs": [
        {
          "internalType": "uint256",
          "name": "rAbs",
          "type": "uint256"
        }
      ],
      "name": "PRBMathSD59x18__MulOverflow",
      "type": "error"
    },
    {
      "inputs": [
        {
          "internalType": "uint256",
          "name": "prod1",
          "type": "uint256"
        }
      ],
      "name": "PRBMath__MulDivFixedPointOverflow",
      "type": "error"
    },
    {
      "inputs": [
        {
          "internalType": "uint256",
          "name": "prod1",
          "type": "uint256"
        },
        {
          "internalType": "uint256",
          "name": "denominator",
          "type": "uint256"
        }
      ],
      "name": "PRBMath__MulDivOverflow",
      "type": "error"
    },
    {
      "anonymous": false,
      "inputs": [
        {
          "indexed": true,
          "internalType": "address",
          "name": "owner",
          "type": "address"
        },
        {
          "indexed": true,
          "internalType": "address",
          "name": "spender",
          "type": "address"
        },
        {
          "indexed": true,
          "internalType": "uint256",
          "name": "id",
          "type": "uint256"
        }
      ],
      "name": "Approval",
      "type": "event"
    },
    {
      "anonymous": false,
      "inputs": [
        {
          "indexed": true,
          "internalType": "address",
          "name": "owner",
          "type": "address"
        },
        {
          "indexed": true,
          "internalType": "address",
          "name": "operator",
          "type": "address"
        },
        {
          "indexed": false,
          "internalType": "bool",
          "name": "approved",
          "type": "bool"
        }
      ],
      "name": "ApprovalForAll",
      "type": "event"
    },
    {
      "anonymous": false,
      "inputs": [
        {
          "indexed": true,
          "internalType": "address",
          "name": "from",
          "type": "address"
        },
        {
          "indexed": true,
          "internalType": "address",
          "name": "to",
          "type": "address"
        },
        {
          "indexed": true,
          "internalType": "uint256",
          "name": "id",
          "type": "uint256"
        }
      ],
      "name": "Transfer",
      "type": "event"
    },
    {
      "inputs": [
        {
          "internalType": "address",
          "name": "spender",
          "type": "address"
        },
        {
          "internalType": "uint256",
          "name": "id",
          "type": "uint256"
        }
      ],
      "name": "approve",
      "outputs": [],
      "stateMutability": "nonpayable",
      "type": "function"
    },
    {
      "inputs": [
        {
          "internalType": "address",
          "name": "",
          "type": "address"
        }
      ],
      "name": "balanceOf",
      "outputs": [
        {
          "internalType": "uint256",
          "name": "",
          "type": "uint256"
        }
      ],
      "stateMutability": "view",
      "type": "function",
      "constant": true
    },
    {
      "inputs": [],
      "name": "curTokenId",
      "outputs": [
        {
          "internalType": "uint256",
          "name": "",
          "type": "uint256"
        }
      ],
      "stateMutability": "view",
      "type": "function",
      "constant": true
    },
    {
      "inputs": [
        {
          "internalType": "uint256",
          "name": "",
          "type": "uint256"
        }
      ],
      "name": "getApproved",
      "outputs": [
        {
          "internalType": "address",
          "name": "",
          "type": "address"
        }
      ],
      "stateMutability": "view",
      "type": "function",
      "constant": true
    },
    {
      "inputs": [
        {
          "internalType": "address",
          "name": "",
          "type": "address"
        },
        {
          "internalType": "address",
          "name": "",
          "type": "address"
        }
      ],
      "name": "isApprovedForAll",
      "outputs": [
        {
          "internalType": "bool",
          "name": "",
          "type": "bool"
        }
      ],
      "stateMutability": "view",
      "type": "function",
      "constant": true
    },
    {
      "inputs": [],
      "name": "lastPurchaseBlock",
      "outputs": [
        {
          "internalType": "uint256",
          "name": "",
          "type": "uint256"
        }
      ],
      "stateMutability": "view",
      "type": "function",
      "constant": true
    },
    {
      "inputs": [],
      "name": "name",
      "outputs": [
        {
          "internalType": "string",
          "name": "",
          "type": "string"
        }
      ],
      "stateMutability": "view",
      "type": "function",
      "constant": true
    },
    {
      "inputs": [],
      "name": "nextPurchaseStartingEMS",
      "outputs": [
        {
          "internalType": "int256",
          "name": "",
          "type": "int256"
        }
      ],
      "stateMutability": "view",
      "type": "function",
      "constant": true
    },
    {
      "inputs": [],
      "name": "nextPurchaseStartingPrice",
      "outputs": [
        {
          "internalType": "int256",
          "name": "",
          "type": "int256"
        }
      ],
      "stateMutability": "view",
      "type": "function",
      "constant": true
    },
    {
      "inputs": [
        {
          "internalType": "uint256",
          "name": "",
          "type": "uint256"
        }
      ],
      "name": "ownerOf",
      "outputs": [
        {
          "internalType": "address",
          "name": "",
          "type": "address"
        }
      ],
      "stateMutability": "view",
      "type": "function",
      "constant": true
    },
    {
      "inputs": [],
      "name": "priceDecayStartBlock",
      "outputs": [
        {
          "internalType": "uint256",
          "name": "",
          "type": "uint256"
        }
      ],
      "stateMutability": "view",
      "type": "function",
      "constant": true
    },
    {
      "inputs": [],
      "name": "priceHalflife",
      "outputs": [
        {
          "internalType": "int256",
          "name": "",
          "type": "int256"
        }
      ],
      "stateMutability": "view",
      "type": "function",
      "constant": true
    },
    {
      "inputs": [],
      "name": "priceSpeed",
      "outputs": [
        {
          "internalType": "int256",
          "name": "",
          "type": "int256"
        }
      ],
      "stateMutability": "view",
      "type": "function",
      "constant": true
    },
    {
      "inputs": [
        {
          "internalType": "address",
          "name": "from",
          "type": "address"
        },
        {
          "internalType": "address",
          "name": "to",
          "type": "address"
        },
        {
          "internalType": "uint256",
          "name": "id",
          "type": "uint256"
        }
      ],
      "name": "safeTransferFrom",
      "outputs": [],
      "stateMutability": "nonpayable",
      "type": "function"
    },
    {
      "inputs": [
        {
          "internalType": "address",
          "name": "from",
          "type": "address"
        },
        {
          "internalType": "address",
          "name": "to",
          "type": "address"
        },
        {
          "internalType": "uint256",
          "name": "id",
          "type": "uint256"
        },
        {
          "internalType": "bytes",
          "name": "data",
          "type": "bytes"
        }
      ],
      "name": "safeTransferFrom",
      "outputs": [],
      "stateMutability": "nonpayable",
      "type": "function"
    },
    {
      "inputs": [],
      "name": "saleHalflife",
      "outputs": [
        {
          "internalType": "int256",
          "name": "",
          "type": "int256"
        }
      ],
      "stateMutability": "view",
      "type": "function",
      "constant": true
    },
    {
      "inputs": [
        {
          "internalType": "address",
          "name": "operator",
          "type": "address"
        },
        {
          "internalType": "bool",
          "name": "approved",
          "type": "bool"
        }
      ],
      "name": "setApprovalForAll",
      "outputs": [],
      "stateMutability": "nonpayable",
      "type": "function"
    },
    {
      "inputs": [
        {
          "internalType": "bytes4",
          "name": "interfaceId",
          "type": "bytes4"
        }
      ],
      "name": "supportsInterface",
      "outputs": [
        {
          "internalType": "bool",
          "name": "",
          "type": "bool"
        }
      ],
      "stateMutability": "pure",
      "type": "function",
      "constant": true
    },
    {
      "inputs": [],
      "name": "symbol",
      "outputs": [
        {
          "internalType": "string",
          "name": "",
          "type": "string"
        }
      ],
      "stateMutability": "view",
      "type": "function",
      "constant": true
    },
    {
      "inputs": [],
      "name": "targetEMS",
      "outputs": [
        {
          "internalType": "int256",
          "name": "",
          "type": "int256"
        }
      ],
      "stateMutability": "view",
      "type": "function",
      "constant": true
    },
    {
      "inputs": [
        {
          "internalType": "uint256",
          "name": "tokenId",
          "type": "uint256"
        }
      ],
      "name": "tokenURI",
      "outputs": [
        {
          "internalType": "string",
          "name": "",
          "type": "string"
        }
      ],
      "stateMutability": "view",
      "type": "function",
      "constant": true
    },
    {
      "inputs": [
        {
          "internalType": "address",
          "name": "from",
          "type": "address"
        },
        {
          "internalType": "address",
          "name": "to",
          "type": "address"
        },
        {
          "internalType": "uint256",
          "name": "id",
          "type": "uint256"
        }
      ],
      "name": "transferFrom",
      "outputs": [],
      "stateMutability": "nonpayable",
      "type": "function"
    },
    {
      "inputs": [],
      "name": "getCurrentEMS",
      "outputs": [
        {
          "internalType": "int256",
          "name": "result",
          "type": "int256"
        }
      ],
      "stateMutability": "view",
      "type": "function",
      "constant": true
    },
    {
      "inputs": [],
      "name": "getQuote",
      "outputs": [
        {
          "internalType": "int256",
          "name": "result",
          "type": "int256"
        }
      ],
      "stateMutability": "view",
      "type": "function",
      "constant": true
    },
    {
      "inputs": [
        {
          "internalType": "int256",
          "name": "lastPurchasePrice",
          "type": "int256"
        }
      ],
      "name": "getNextStartingPrice",
      "outputs": [
        {
          "internalType": "int256",
          "name": "result",
          "type": "int256"
        }
      ],
      "stateMutability": "view",
      "type": "function",
      "constant": true
    },
    {
      "inputs": [
        {
          "internalType": "string",
          "name": "uri",
          "type": "string"
        }
      ],
      "name": "mint",
      "outputs": [],
      "stateMutability": "payable",
      "type": "function",
      "payable": true
    }
  ],
  "bytecode": "0x61010060405260006009553480156200001757600080fd5b50604051620057743803806200577483398181016040528101906200003d919062001764565b8686816000908051906020019062000057929190620014dc565b50806001908051906020019062000070929190620014dc565b50505043600781905550436008819055508360a081815250508260c081815250508160e0818152505062000141620000f3620000bd60a051886200016560201b620016b71790919060201c565b620000c89062001884565b620000df6002620002eb60201b620018231760201c565b6200040560201b620019311790919060201c565b6200010a6001620002eb60201b620018231760201c565b620001169190620018d2565b6200012d6001620002eb60201b620018231760201c565b6200016560201b620016b71790919060201c565b60808181525050608051600a8190555080600b819055505050505050505062001af4565b60007f8000000000000000000000000000000000000000000000000000000000000000831480620001b557507f800000000000000000000000000000000000000000000000000000000000000082145b15620001ed576040517fb3c754a300000000000000000000000000000000000000000000000000000000815260040160405180910390fd5b6000806000851262000200578462000205565b846000035b9150600084126200021757836200021c565b836000035b905060006200024083670de0b6b3a7640000846200046e60201b6200197e1760201c565b90507f7fffffffffffffffffffffffffffffffffffffffffffffffffffffffffffffff811115620002aa57806040517f7cb4bef5000000000000000000000000000000000000000000000000000000008152600401620002a191906200198b565b60405180910390fd5b600080600160000388139150600160000387139050600181831814620002d15782620002de565b82620002dd9062001884565b5b9550505050505092915050565b6000670de0b6b3a76400007f800000000000000000000000000000000000000000000000000000000000000081620003285762000327620019a8565b5b058212156200037057816040517fe608e18b000000000000000000000000000000000000000000000000000000008152600401620003679190620019e8565b60405180910390fd5b670de0b6b3a76400007f7fffffffffffffffffffffffffffffffffffffffffffffffffffffffffffffff81620003ab57620003aa620019a8565b5b05821315620003f357816040517f71f72a31000000000000000000000000000000000000000000000000000000008152600401620003ea9190620019e8565b60405180910390fd5b670de0b6b3a764000082029050919050565b600080831415620004335760008214620004215760006200042b565b670de0b6b3a76400005b905062000468565b62000465620004596200044c856200058c60201b60201c565b846200070660201b60201c565b6200087b60201b60201c565b90505b92915050565b600080600080198587098587029250828110838203039150506000811415620004af57838281620004a457620004a3620019a8565b5b049250505062000585565b838110620004f85780846040517f773cc18c000000000000000000000000000000000000000000000000000000008152600401620004ef92919062001a05565b60405180910390fd5b60008486880990508281118203915080830392506000600186190186169050808604955080840493506001818260000304019050808302841793506000600287600302189050808702600203810290508087026002038102905080870260020381029050808702600203810290508087026002038102905080870260020381029050808502955050505050505b9392505050565b6000808213620005d557816040517f613f4fba000000000000000000000000000000000000000000000000000000008152600401620005cc9190620019e8565b60405180910390fd5b6000670de0b6b3a76400008312620005f1576001905062000629565b7fffffffffffffffffffffffffffffffffffffffffffffffffffffffffffffffff9050826ec097ce7bc90715b34b9f10000000000492505b60006200065c670de0b6b3a764000085816200064a5762000649620019a8565b5b056200098b60201b62001a941760201c565b9050670de0b6b3a76400008102925060008185901d9050670de0b6b3a76400008114156200069257828402935050505062000701565b60006706f05b59d3b2000090505b6000811315620006f757670de0b6b3a764000082830281620006c757620006c6620019a8565b5b059150670de0b6b3a76400006002028212620006ea578085019450600182901d91505b600181901d9050620006a0565b5082840293505050505b919050565b60007f80000000000000000000000000000000000000000000000000000000000000008314806200075657507f800000000000000000000000000000000000000000000000000000000000000082145b156200078e576040517f3406846c00000000000000000000000000000000000000000000000000000000815260040160405180910390fd5b60008060008512620007a15784620007a6565b846000035b915060008412620007b85783620007bd565b836000035b90506000620007d8838362000aba60201b62001bab1760201c565b90507f7fffffffffffffffffffffffffffffffffffffffffffffffffffffffffffffff8111156200084257806040517fbf79e8d90000000000000000000000000000000000000000000000000000000081526004016200083991906200198b565b60405180910390fd5b6000806001600003881391506001600003871390506001818318146200086957826200086e565b826000035b9550505050505092915050565b600080821215620008f7577ffffffffffffffffffffffffffffffffffffffffffffffffcc22e87f6eb468eeb821215620008b9576000905062000986565b620008cd826000036200087b60201b60201c565b6ec097ce7bc90715b34b9f100000000081620008ee57620008ed620019a8565b5b05905062000985565b680a688906bd8b00000082126200094757816040517fe69458f90000000000000000000000000000000000000000000000000000000081526004016200093e9190620019e8565b60405180910390fd5b6000670de0b6b3a7640000604084901b81620009685762000967620019a8565b5b049050620009818162000bc060201b62001ca91760201c565b9150505b5b919050565b60007001000000000000000000000000000000008210620009bf57608082901c9150608081620009bc919062001a32565b90505b680100000000000000008210620009e957604082901c9150604081620009e6919062001a32565b90505b640100000000821062000a0f57602082901c915060208162000a0c919062001a32565b90505b62010000821062000a3357601082901c915060108162000a30919062001a32565b90505b610100821062000a5657600882901c915060088162000a53919062001a32565b90505b6010821062000a7857600482901c915060048162000a75919062001a32565b90505b6004821062000a9a57600282901c915060028162000a97919062001a32565b90505b6002821062000ab55760018162000ab2919062001a32565b90505b919050565b60008060008019848609848602925082811083820303915050670de0b6b3a7640000811062000b2257806040517fd31b340200000000000000000000000000000000000000000000000000000000815260040162000b1991906200198b565b60405180910390fd5b600080670de0b6b3a764000086880991506706f05b59d3b1ffff82119050600083141562000b745780670de0b6b3a7640000858162000b665762000b65620019a8565b5b040194505050505062000bba565b807faccb18165bd6fe31ae1cf318dc5b51eee0e1ba569b88cd74c1773b91fac1066960016204000080600003040186851186030262040000858803041702019450505050505b92915050565b600077800000000000000000000000000000000000000000000000905060006780000000000000008316111562000c0457604068016a09e667f3bcc9098202901c90505b60006740000000000000008316111562000c2b5760406801306fe0a31b7152df8202901c90505b60006720000000000000008316111562000c525760406801172b83c7d517adce8202901c90505b60006710000000000000008316111562000c7957604068010b5586cf9890f62a8202901c90505b60006708000000000000008316111562000ca05760406801059b0d31585743ae8202901c90505b60006704000000000000008316111562000cc7576040680102c9a3e778060ee78202901c90505b60006702000000000000008316111562000cee57604068010163da9fb33356d88202901c90505b60006701000000000000008316111562000d15576040680100b1afa5abcbed618202901c90505b600066800000000000008316111562000d3b57604068010058c86da1c09ea28202901c90505b600066400000000000008316111562000d615760406801002c605e2e8cec508202901c90505b600066200000000000008316111562000d87576040680100162f3904051fa18202901c90505b600066100000000000008316111562000dad5760406801000b175effdc76ba8202901c90505b600066080000000000008316111562000dd3576040680100058ba01fb9f96d8202901c90505b600066040000000000008316111562000df957604068010002c5cc37da94928202901c90505b600066020000000000008316111562000e1f5760406801000162e525ee05478202901c90505b600066010000000000008316111562000e4557604068010000b17255775c048202901c90505b6000658000000000008316111562000e6a5760406801000058b91b5bc9ae8202901c90505b6000654000000000008316111562000e8f576040680100002c5c89d5ec6d8202901c90505b6000652000000000008316111562000eb457604068010000162e43f4f8318202901c90505b6000651000000000008316111562000ed9576040680100000b1721bcfc9a8202901c90505b6000650800000000008316111562000efe57604068010000058b90cf1e6e8202901c90505b6000650400000000008316111562000f235760406801000002c5c863b73f8202901c90505b6000650200000000008316111562000f48576040680100000162e430e5a28202901c90505b6000650100000000008316111562000f6d5760406801000000b1721835518202901c90505b60006480000000008316111562000f91576040680100000058b90c0b498202901c90505b60006440000000008316111562000fb557604068010000002c5c8601cc8202901c90505b60006420000000008316111562000fd95760406801000000162e42fff08202901c90505b60006410000000008316111562000ffd57604068010000000b17217fbb8202901c90505b600064080000000083161115620010215760406801000000058b90bfce8202901c90505b60006404000000008316111562001045576040680100000002c5c85fe38202901c90505b6000640200000000831611156200106957604068010000000162e42ff18202901c90505b6000640100000000831611156200108d576040680100000000b17217f88202901c90505b6000638000000083161115620010b057604068010000000058b90bfc8202901c90505b6000634000000083161115620010d35760406801000000002c5c85fe8202901c90505b6000632000000083161115620010f6576040680100000000162e42ff8202901c90505b6000631000000083161115620011195760406801000000000b17217f8202901c90505b60006308000000831611156200113c576040680100000000058b90c08202901c90505b60006304000000831611156200115f57604068010000000002c5c8608202901c90505b6000630200000083161115620011825760406801000000000162e4308202901c90505b6000630100000083161115620011a557604068010000000000b172188202901c90505b60006280000083161115620011c75760406801000000000058b90c8202901c90505b60006240000083161115620011e9576040680100000000002c5c868202901c90505b600062200000831611156200120b57604068010000000000162e438202901c90505b600062100000831611156200122d576040680100000000000b17218202901c90505b600062080000831611156200124f57604068010000000000058b918202901c90505b60006204000083161115620012715760406801000000000002c5c88202901c90505b6000620200008316111562001293576040680100000000000162e48202901c90505b60006201000083161115620012b55760406801000000000000b1728202901c90505b600061800083161115620012d6576040680100000000000058b98202901c90505b600061400083161115620012f757604068010000000000002c5d8202901c90505b600061200083161115620013185760406801000000000000162e8202901c90505b6000611000831611156200133957604068010000000000000b178202901c90505b6000610800831611156200135a5760406801000000000000058c8202901c90505b6000610400831611156200137b576040680100000000000002c68202901c90505b6000610200831611156200139c576040680100000000000001638202901c90505b600061010083161115620013bd576040680100000000000000b18202901c90505b6000608083161115620013dd576040680100000000000000598202901c90505b6000604083161115620013fd5760406801000000000000002c8202901c90505b60006020831611156200141d576040680100000000000000168202901c90505b60006010831611156200143d5760406801000000000000000b8202901c90505b60006008831611156200145d576040680100000000000000068202901c90505b60006004831611156200147d576040680100000000000000038202901c90505b60006002831611156200149d576040680100000000000000018202901c90505b6000600183161115620014bd576040680100000000000000018202901c90505b670de0b6b3a764000081029050604082901c60bf0381901c9050919050565b828054620014ea9062001abe565b90600052602060002090601f0160209004810192826200150e57600085556200155a565b82601f106200152957805160ff19168380011785556200155a565b828001600101855582156200155a579182015b82811115620015595782518255916020019190600101906200153c565b5b5090506200156991906200156d565b5090565b5b80821115620015885760008160009055506001016200156e565b5090565b6000604051905090565b600080fd5b600080fd5b600080fd5b600080fd5b6000601f19601f8301169050919050565b7f4e487b7100000000000000000000000000000000000000000000000000000000600052604160045260246000fd5b620015f582620015aa565b810181811067ffffffffffffffff82111715620016175762001616620015bb565b5b80604052505050565b60006200162c6200158c565b90506200163a8282620015ea565b919050565b600067ffffffffffffffff8211156200165d576200165c620015bb565b5b6200166882620015aa565b9050602081019050919050565b60005b838110156200169557808201518184015260208101905062001678565b83811115620016a5576000848401525b50505050565b6000620016c2620016bc846200163f565b62001620565b905082815260208101848484011115620016e157620016e0620015a5565b5b620016ee84828562001675565b509392505050565b600082601f8301126200170e576200170d620015a0565b5b815162001720848260208601620016ab565b91505092915050565b6000819050919050565b6200173e8162001729565b81146200174a57600080fd5b50565b6000815190506200175e8162001733565b92915050565b600080600080600080600060e0888a03121562001786576200178562001596565b5b600088015167ffffffffffffffff811115620017a757620017a66200159b565b5b620017b58a828b01620016f6565b975050602088015167ffffffffffffffff811115620017d957620017d86200159b565b5b620017e78a828b01620016f6565b9650506040620017fa8a828b016200174d565b95505060606200180d8a828b016200174d565b9450506080620018208a828b016200174d565b93505060a0620018338a828b016200174d565b92505060c0620018468a828b016200174d565b91505092959891949750929550565b7f4e487b7100000000000000000000000000000000000000000000000000000000600052601160045260246000fd5b6000620018918262001729565b91507f8000000000000000000000000000000000000000000000000000000000000000821415620018c757620018c662001855565b5b816000039050919050565b6000620018df8262001729565b9150620018ec8362001729565b9250827f8000000000000000000000000000000000000000000000000000000000000000018212600084121516156200192a576200192962001855565b5b827f7fffffffffffffffffffffffffffffffffffffffffffffffffffffffffffffff01821360008412161562001965576200196462001855565b5b828203905092915050565b6000819050919050565b620019858162001970565b82525050565b6000602082019050620019a260008301846200197a565b92915050565b7f4e487b7100000000000000000000000000000000000000000000000000000000600052601260045260246000fd5b620019e28162001729565b82525050565b6000602082019050620019ff6000830184620019d7565b92915050565b600060408201905062001a1c60008301856200197a565b62001a2b60208301846200197a565b9392505050565b600062001a3f8262001970565b915062001a4c8362001970565b9250827fffffffffffffffffffffffffffffffffffffffffffffffffffffffffffffffff0382111562001a845762001a8362001855565b5b828201905092915050565b7f4e487b7100000000000000000000000000000000000000000000000000000000600052602260045260246000fd5b6000600282049050600182168062001ad757607f821691505b6020821081141562001aee5762001aed62001a8f565b5b50919050565b60805160a05160c05160e051613c1c62001b5860003960008181610a590152611666015260008181611045015261140e015260008181610709015281816111ac0152612a67015260008181610ffa015281816110af0152612a0e0152613c1c6000f3fe6080604052600436106101815760003560e01c80636352211e116100d1578063b88d4fde1161008a578063d85d3d2711610064578063d85d3d271461059a578063da41672f146105b6578063df1cb687146105e1578063e985e9c51461060c57610181565b8063b88d4fde14610509578063c4108ccd14610532578063c87b56dd1461055d57610181565b80636352211e146103e557806370a082311461042257806395d89b411461045f57806396d4fc201461048a578063a17716ac146104b5578063a22cb465146104e057610181565b8063171755b11161013e57806342842e0e1161011857806342842e0e14610329578063468fe8481461035257806346a763701461038f5780634eebd25f146103ba57610181565b8063171755b1146102aa57806323b872dd146102d5578063247bfb06146102fe57610181565b806301ffc9a71461018657806305c8c51f146101c357806306e32b64146101ee57806306fdde0314610219578063081812fc14610244578063095ea7b314610281575b600080fd5b34801561019257600080fd5b506101ad60048036038101906101a89190612ece565b610649565b6040516101ba9190612f16565b60405180910390f35b3480156101cf57600080fd5b506101d86106db565b6040516101e59190612f4a565b60405180910390f35b3480156101fa57600080fd5b506102036106e1565b6040516102109190612f7e565b60405180910390f35b34801561022557600080fd5b5061022e610776565b60405161023b9190613032565b60405180910390f35b34801561025057600080fd5b5061026b60048036038101906102669190613080565b610804565b60405161027891906130ee565b60405180910390f35b34801561028d57600080fd5b506102a860048036038101906102a39190613135565b610837565b005b3480156102b657600080fd5b506102bf610a20565b6040516102cc9190612f7e565b60405180910390f35b3480156102e157600080fd5b506102fc60048036038101906102f79190613175565b610ab4565b005b34801561030a57600080fd5b50610313610eb4565b6040516103209190612f4a565b60405180910390f35b34801561033557600080fd5b50610350600480360381019061034b9190613175565b610eba565b005b34801561035e57600080fd5b50610379600480360381019061037491906131f4565b610ff2565b6040516103869190612f7e565b60405180910390f35b34801561039b57600080fd5b506103a46110a7565b6040516103b19190612f7e565b60405180910390f35b3480156103c657600080fd5b506103cf6110ad565b6040516103dc9190612f7e565b60405180910390f35b3480156103f157600080fd5b5061040c60048036038101906104079190613080565b6110d1565b60405161041991906130ee565b60405180910390f35b34801561042e57600080fd5b5061044960048036038101906104449190613221565b611104565b6040516104569190612f4a565b60405180910390f35b34801561046b57600080fd5b5061047461111c565b6040516104819190613032565b60405180910390f35b34801561049657600080fd5b5061049f6111aa565b6040516104ac9190612f7e565b60405180910390f35b3480156104c157600080fd5b506104ca6111ce565b6040516104d79190612f7e565b60405180910390f35b3480156104ec57600080fd5b506105076004803603810190610502919061327a565b6111d4565b005b34801561051557600080fd5b50610530600480360381019061052b91906133ef565b6112d1565b005b34801561053e57600080fd5b5061054761140c565b6040516105549190612f7e565b60405180910390f35b34801561056957600080fd5b50610584600480360381019061057f9190613080565b611430565b6040516105919190613032565b60405180910390f35b6105b460048036038101906105af9190613513565b6114db565b005b3480156105c257600080fd5b506105cb61165e565b6040516105d89190612f4a565b60405180910390f35b3480156105ed57600080fd5b506105f6611664565b6040516106039190612f7e565b60405180910390f35b34801561061857600080fd5b50610633600480360381019061062e919061355c565b611688565b6040516106409190612f16565b60405180910390f35b60006301ffc9a760e01b827bffffffffffffffffffffffffffffffffffffffffffffffffffffffff191614806106a457506380ac58cd60e01b827bffffffffffffffffffffffffffffffffffffffffffffffffffffffff1916145b806106d45750635b5e139f60e01b827bffffffffffffffffffffffffffffffffffffffffffffffffffffffff1916145b9050919050565b60075481565b600080600754436106f291906135cb565b90506106fd81611823565b905060006107586107377f0000000000000000000000000000000000000000000000000000000000000000846116b790919063ffffffff16565b610740906135ff565b61074a6002611823565b61193190919063ffffffff16565b905061076f81600a5461258590919063ffffffff16565b9250505090565b6000805461078390613677565b80601f01602080910402602001604051908101604052809291908181526020018280546107af90613677565b80156107fc5780601f106107d1576101008083540402835291602001916107fc565b820191906000526020600020905b8154815290600101906020018083116107df57829003601f168201915b505050505081565b60056020528060005260406000206000915054906101000a900473ffffffffffffffffffffffffffffffffffffffff1681565b60006004600083815260200190815260200160002060009054906101000a900473ffffffffffffffffffffffffffffffffffffffff1690508073ffffffffffffffffffffffffffffffffffffffff163373ffffffffffffffffffffffffffffffffffffffff16148061092f5750600660008273ffffffffffffffffffffffffffffffffffffffff1673ffffffffffffffffffffffffffffffffffffffff16815260200190815260200160002060003373ffffffffffffffffffffffffffffffffffffffff1673ffffffffffffffffffffffffffffffffffffffff16815260200190815260200160002060009054906101000a900460ff165b61096e576040517f08c379a0000000000000000000000000000000000000000000000000000000008152600401610965906136f5565b60405180910390fd5b826005600084815260200190815260200160002060006101000a81548173ffffffffffffffffffffffffffffffffffffffff021916908373ffffffffffffffffffffffffffffffffffffffff160217905550818373ffffffffffffffffffffffffffffffffffffffff168273ffffffffffffffffffffffffffffffffffffffff167f8c5be1e5ebec7d5bd14f71427d1e84f3dd0314c0f7b2291e5b200ac8c7c3b92560405160405180910390a4505050565b60006008544311610a3557600b549050610ab1565b6000610a4d60085443610a4891906135cb565b611823565b90506000610a95610a907f000000000000000000000000000000000000000000000000000000000000000084610a82906135ff565b6116b790919063ffffffff16565b6126e2565b9050610aac81600b5461258590919063ffffffff16565b925050505b90565b6004600082815260200190815260200160002060009054906101000a900473ffffffffffffffffffffffffffffffffffffffff1673ffffffffffffffffffffffffffffffffffffffff168373ffffffffffffffffffffffffffffffffffffffff1614610b55576040517f08c379a0000000000000000000000000000000000000000000000000000000008152600401610b4c90613761565b60405180910390fd5b600073ffffffffffffffffffffffffffffffffffffffff168273ffffffffffffffffffffffffffffffffffffffff161415610bc5576040517f08c379a0000000000000000000000000000000000000000000000000000000008152600401610bbc906137cd565b60405180910390fd5b8273ffffffffffffffffffffffffffffffffffffffff163373ffffffffffffffffffffffffffffffffffffffff161480610c5d57506005600082815260200190815260200160002060009054906101000a900473ffffffffffffffffffffffffffffffffffffffff1673ffffffffffffffffffffffffffffffffffffffff163373ffffffffffffffffffffffffffffffffffffffff16145b80610cee5750600660008473ffffffffffffffffffffffffffffffffffffffff1673ffffffffffffffffffffffffffffffffffffffff16815260200190815260200160002060003373ffffffffffffffffffffffffffffffffffffffff1673ffffffffffffffffffffffffffffffffffffffff16815260200190815260200160002060009054906101000a900460ff165b610d2d576040517f08c379a0000000000000000000000000000000000000000000000000000000008152600401610d24906136f5565b60405180910390fd5b600360008473ffffffffffffffffffffffffffffffffffffffff1673ffffffffffffffffffffffffffffffffffffffff1681526020019081526020016000206000815480929190600190039190505550600360008373ffffffffffffffffffffffffffffffffffffffff1673ffffffffffffffffffffffffffffffffffffffff16815260200190815260200160002060008154809291906001019190505550816004600083815260200190815260200160002060006101000a81548173ffffffffffffffffffffffffffffffffffffffff021916908373ffffffffffffffffffffffffffffffffffffffff1602179055506005600082815260200190815260200160002060006101000a81549073ffffffffffffffffffffffffffffffffffffffff0219169055808273ffffffffffffffffffffffffffffffffffffffff168473ffffffffffffffffffffffffffffffffffffffff167fddf252ad1be2c89b69c2b068fc378daa952ba7f163c4a11628f55a4df523b3ef60405160405180910390a4505050565b60095481565b610ec5838383610ab4565b60008273ffffffffffffffffffffffffffffffffffffffff163b1480610fae575063150b7a0260e01b7bffffffffffffffffffffffffffffffffffffffffffffffffffffffff19168273ffffffffffffffffffffffffffffffffffffffff1663150b7a023386856040518463ffffffff1660e01b8152600401610f4a93929190613824565b6020604051808303816000875af1158015610f69573d6000803e3d6000fd5b505050506040513d601f19601f82011682018060405250810190610f8d9190613883565b7bffffffffffffffffffffffffffffffffffffffffffffffffffffffff1916145b610fed576040517f08c379a0000000000000000000000000000000000000000000000000000000008152600401610fe4906138fc565b60405180910390fd5b505050565b60008061102a7f0000000000000000000000000000000000000000000000000000000000000000600a546116b790919063ffffffff16565b90506110366001611823565b81131561109d576110966110737f00000000000000000000000000000000000000000000000000000000000000008361258590919063ffffffff16565b61107d6001611823565b611087919061391c565b8461258590919063ffffffff16565b91506110a1565b8291505b50919050565b600b5481565b7f000000000000000000000000000000000000000000000000000000000000000081565b60046020528060005260406000206000915054906101000a900473ffffffffffffffffffffffffffffffffffffffff1681565b60036020528060005260406000206000915090505481565b6001805461112990613677565b80601f016020809104026020016040519081016040528092919081815260200182805461115590613677565b80156111a25780601f10611177576101008083540402835291602001916111a2565b820191906000526020600020905b81548152906001019060200180831161118557829003601f168201915b505050505081565b7f000000000000000000000000000000000000000000000000000000000000000081565b600a5481565b80600660003373ffffffffffffffffffffffffffffffffffffffff1673ffffffffffffffffffffffffffffffffffffffff16815260200190815260200160002060008473ffffffffffffffffffffffffffffffffffffffff1673ffffffffffffffffffffffffffffffffffffffff16815260200190815260200160002060006101000a81548160ff0219169083151502179055508173ffffffffffffffffffffffffffffffffffffffff163373ffffffffffffffffffffffffffffffffffffffff167f17307eab39ab6107e8899845ad3d59bd9653f200f220920489ca2b5937696c31836040516112c59190612f16565b60405180910390a35050565b6112dc848484610ab4565b60008373ffffffffffffffffffffffffffffffffffffffff163b14806113c7575063150b7a0260e01b7bffffffffffffffffffffffffffffffffffffffffffffffffffffffff19168373ffffffffffffffffffffffffffffffffffffffff1663150b7a02338786866040518563ffffffff1660e01b815260040161136394939291906139f4565b6020604051808303816000875af1158015611382573d6000803e3d6000fd5b505050506040513d601f19601f820116820180604052508101906113a69190613883565b7bffffffffffffffffffffffffffffffffffffffffffffffffffffffff1916145b611406576040517f08c379a00000000000000000000000000000000000000000000000000000000081526004016113fd906138fc565b60405180910390fd5b50505050565b7f000000000000000000000000000000000000000000000000000000000000000081565b6060600060026000848152602001908152602001600020805461145290613677565b80601f016020809104026020016040519081016040528092919081815260200182805461147e90613677565b80156114cb5780601f106114a0576101008083540402835291602001916114cb565b820191906000526020600020905b8154815290600101906020018083116114ae57829003601f168201915b5050505050905080915050919050565b60006114e5610a20565b905060006114f2826127a5565b90508034101561152e576040517fcd1c886700000000000000000000000000000000000000000000000000000000815260040160405180910390fd5b60006009600081548092919061154390613a40565b91905055905061155333826127c7565b61155d81856129da565b6115676001611823565b61156f6106e1565b611579919061391c565b600a8190555061158883610ff2565b600b81905550611596612a06565b60088190555043600781905550600082346115b191906135cb565b905060003373ffffffffffffffffffffffffffffffffffffffff16826040516115d990613ab7565b60006040518083038185875af1925050503d8060008114611616576040519150601f19603f3d011682016040523d82523d6000602084013e61161b565b606091505b5050905080611656576040517fdcf35db000000000000000000000000000000000000000000000000000000000815260040160405180910390fd5b505050505050565b60085481565b7f000000000000000000000000000000000000000000000000000000000000000081565b60066020528160005260406000206020528060005260406000206000915091509054906101000a900460ff1681565b60007f800000000000000000000000000000000000000000000000000000000000000083148061170657507f800000000000000000000000000000000000000000000000000000000000000082145b1561173d576040517fb3c754a300000000000000000000000000000000000000000000000000000000815260040160405180910390fd5b6000806000851261174e5784611753565b846000035b9150600084126117635783611768565b836000035b9050600061177f83670de0b6b3a76400008461197e565b90507f7fffffffffffffffffffffffffffffffffffffffffffffffffffffffffffffff8111156117e657806040517f7cb4bef50000000000000000000000000000000000000000000000000000000081526004016117dd9190612f4a565b60405180910390fd5b60008060016000038813915060016000038713905060018183181461180b5782611816565b82611815906135ff565b5b9550505050505092915050565b6000670de0b6b3a76400007f80000000000000000000000000000000000000000000000000000000000000008161185d5761185c613acc565b5b058212156118a257816040517fe608e18b0000000000000000000000000000000000000000000000000000000081526004016118999190612f7e565b60405180910390fd5b670de0b6b3a76400007f7fffffffffffffffffffffffffffffffffffffffffffffffffffffffffffffff816118da576118d9613acc565b5b0582131561191f57816040517f71f72a310000000000000000000000000000000000000000000000000000000081526004016119169190612f7e565b60405180910390fd5b670de0b6b3a764000082029050919050565b60008083141561195b576000821461194a576000611954565b670de0b6b3a76400005b9050611978565b61197561197061196a85612abc565b84612585565b612c19565b90505b92915050565b6000806000801985870985870292508281108382030391505060008114156119ba578382816119b0576119af613acc565b5b0492505050611a8d565b838110611a005780846040517f773cc18c0000000000000000000000000000000000000000000000000000000081526004016119f7929190613afb565b60405180910390fd5b60008486880990508281118203915080830392506000600186190186169050808604955080840493506001818260000304019050808302841793506000600287600302189050808702600203810290508087026002038102905080870260020381029050808702600203810290508087026002038102905080870260020381029050808502955050505050505b9392505050565b60007001000000000000000000000000000000008210611ac557608082901c9150608081611ac29190613b24565b90505b680100000000000000008210611aec57604082901c9150604081611ae99190613b24565b90505b6401000000008210611b0f57602082901c9150602081611b0c9190613b24565b90505b620100008210611b3057601082901c9150601081611b2d9190613b24565b90505b6101008210611b5057600882901c9150600881611b4d9190613b24565b90505b60108210611b6f57600482901c9150600481611b6c9190613b24565b90505b60048210611b8e57600282901c9150600281611b8b9190613b24565b90505b60028210611ba657600181611ba39190613b24565b90505b919050565b60008060008019848609848602925082811083820303915050670de0b6b3a76400008110611c1057806040517fd31b3402000000000000000000000000000000000000000000000000000000008152600401611c079190612f4a565b60405180910390fd5b600080670de0b6b3a764000086880991506706f05b59d3b1ffff821190506000831415611c5d5780670de0b6b3a76400008581611c5057611c4f613acc565b5b0401945050505050611ca3565b807faccb18165bd6fe31ae1cf318dc5b51eee0e1ba569b88cd74c1773b91fac1066960016204000080600003040186851186030262040000858803041702019450505050505b92915050565b6000778000000000000000000000000000000000000000000000009050600067800000000000000083161115611cec57604068016a09e667f3bcc9098202901c90505b600067400000000000000083161115611d125760406801306fe0a31b7152df8202901c90505b600067200000000000000083161115611d385760406801172b83c7d517adce8202901c90505b600067100000000000000083161115611d5e57604068010b5586cf9890f62a8202901c90505b600067080000000000000083161115611d845760406801059b0d31585743ae8202901c90505b600067040000000000000083161115611daa576040680102c9a3e778060ee78202901c90505b600067020000000000000083161115611dd057604068010163da9fb33356d88202901c90505b600067010000000000000083161115611df6576040680100b1afa5abcbed618202901c90505b6000668000000000000083161115611e1b57604068010058c86da1c09ea28202901c90505b6000664000000000000083161115611e405760406801002c605e2e8cec508202901c90505b6000662000000000000083161115611e65576040680100162f3904051fa18202901c90505b6000661000000000000083161115611e8a5760406801000b175effdc76ba8202901c90505b6000660800000000000083161115611eaf576040680100058ba01fb9f96d8202901c90505b6000660400000000000083161115611ed457604068010002c5cc37da94928202901c90505b6000660200000000000083161115611ef95760406801000162e525ee05478202901c90505b6000660100000000000083161115611f1e57604068010000b17255775c048202901c90505b60006580000000000083161115611f425760406801000058b91b5bc9ae8202901c90505b60006540000000000083161115611f66576040680100002c5c89d5ec6d8202901c90505b60006520000000000083161115611f8a57604068010000162e43f4f8318202901c90505b60006510000000000083161115611fae576040680100000b1721bcfc9a8202901c90505b60006508000000000083161115611fd257604068010000058b90cf1e6e8202901c90505b60006504000000000083161115611ff65760406801000002c5c863b73f8202901c90505b6000650200000000008316111561201a576040680100000162e430e5a28202901c90505b6000650100000000008316111561203e5760406801000000b1721835518202901c90505b600064800000000083161115612061576040680100000058b90c0b498202901c90505b60006440000000008316111561208457604068010000002c5c8601cc8202901c90505b6000642000000000831611156120a75760406801000000162e42fff08202901c90505b6000641000000000831611156120ca57604068010000000b17217fbb8202901c90505b6000640800000000831611156120ed5760406801000000058b90bfce8202901c90505b600064040000000083161115612110576040680100000002c5c85fe38202901c90505b60006402000000008316111561213357604068010000000162e42ff18202901c90505b600064010000000083161115612156576040680100000000b17217f88202901c90505b600063800000008316111561217857604068010000000058b90bfc8202901c90505b600063400000008316111561219a5760406801000000002c5c85fe8202901c90505b60006320000000831611156121bc576040680100000000162e42ff8202901c90505b60006310000000831611156121de5760406801000000000b17217f8202901c90505b6000630800000083161115612200576040680100000000058b90c08202901c90505b600063040000008316111561222257604068010000000002c5c8608202901c90505b60006302000000831611156122445760406801000000000162e4308202901c90505b600063010000008316111561226657604068010000000000b172188202901c90505b600062800000831611156122875760406801000000000058b90c8202901c90505b600062400000831611156122a8576040680100000000002c5c868202901c90505b600062200000831611156122c957604068010000000000162e438202901c90505b600062100000831611156122ea576040680100000000000b17218202901c90505b6000620800008316111561230b57604068010000000000058b918202901c90505b6000620400008316111561232c5760406801000000000002c5c88202901c90505b6000620200008316111561234d576040680100000000000162e48202901c90505b6000620100008316111561236e5760406801000000000000b1728202901c90505b60006180008316111561238e576040680100000000000058b98202901c90505b6000614000831611156123ae57604068010000000000002c5d8202901c90505b6000612000831611156123ce5760406801000000000000162e8202901c90505b6000611000831611156123ee57604068010000000000000b178202901c90505b60006108008316111561240e5760406801000000000000058c8202901c90505b60006104008316111561242e576040680100000000000002c68202901c90505b60006102008316111561244e576040680100000000000001638202901c90505b60006101008316111561246e576040680100000000000000b18202901c90505b600060808316111561248d576040680100000000000000598202901c90505b60006040831611156124ac5760406801000000000000002c8202901c90505b60006020831611156124cb576040680100000000000000168202901c90505b60006010831611156124ea5760406801000000000000000b8202901c90505b6000600883161115612509576040680100000000000000068202901c90505b6000600483161115612528576040680100000000000000038202901c90505b6000600283161115612547576040680100000000000000018202901c90505b6000600183161115612566576040680100000000000000018202901c90505b670de0b6b3a764000081029050604082901c60bf0381901c9050919050565b60007f80000000000000000000000000000000000000000000000000000000000000008314806125d457507f800000000000000000000000000000000000000000000000000000000000000082145b1561260b576040517f3406846c00000000000000000000000000000000000000000000000000000000815260040160405180910390fd5b6000806000851261261c5784612621565b846000035b9150600084126126315783612636565b836000035b905060006126448383611bab565b90507f7fffffffffffffffffffffffffffffffffffffffffffffffffffffffffffffff8111156126ab57806040517fbf79e8d90000000000000000000000000000000000000000000000000000000081526004016126a29190612f4a565b60405180910390fd5b6000806001600003881391506001600003871390506001818318146126d057826126d5565b826000035b9550505050505092915050565b60007ffffffffffffffffffffffffffffffffffffffffffffffffdc0d0570925a462ce82121561271557600090506127a0565b680736ea4425c11ac631821261276257816040517f99bb75410000000000000000000000000000000000000000000000000000000081526004016127599190612f7e565b60405180910390fd5b60006714057b7ef767814f8302905061279c670de0b6b3a76400006706f05b59d3b2000083018161279657612795613acc565b5b05612c19565b9150505b919050565b6000670de0b6b3a764000082816127bf576127be613acc565b5b059050919050565b600073ffffffffffffffffffffffffffffffffffffffff168273ffffffffffffffffffffffffffffffffffffffff161415612837576040517f08c379a000000000000000000000000000000000000000000000000000000000815260040161282e906137cd565b60405180910390fd5b600073ffffffffffffffffffffffffffffffffffffffff166004600083815260200190815260200160002060009054906101000a900473ffffffffffffffffffffffffffffffffffffffff1673ffffffffffffffffffffffffffffffffffffffff16146128d9576040517f08c379a00000000000000000000000000000000000000000000000000000000081526004016128d090613bc6565b60405180910390fd5b600360008373ffffffffffffffffffffffffffffffffffffffff1673ffffffffffffffffffffffffffffffffffffffff16815260200190815260200160002060008154809291906001019190505550816004600083815260200190815260200160002060006101000a81548173ffffffffffffffffffffffffffffffffffffffff021916908373ffffffffffffffffffffffffffffffffffffffff160217905550808273ffffffffffffffffffffffffffffffffffffffff16600073ffffffffffffffffffffffffffffffffffffffff167fddf252ad1be2c89b69c2b068fc378daa952ba7f163c4a11628f55a4df523b3ef60405160405180910390a45050565b80600260008481526020019081526020016000209080519060200190612a01929190612dbf565b505050565b600080612a3e7f0000000000000000000000000000000000000000000000000000000000000000600a546116b790919063ffffffff16565b9050612a4a6001611823565b811315612ab4576000612a9e612a99612a94612a6585612abc565b7f000000000000000000000000000000000000000000000000000000000000000061258590919063ffffffff16565b612d07565b6127a5565b90508043612aac9190613b24565b925050612ab8565b4391505b5090565b6000808213612b0257816040517f613f4fba000000000000000000000000000000000000000000000000000000008152600401612af99190612f7e565b60405180910390fd5b6000670de0b6b3a76400008312612b1c5760019050612b54565b7fffffffffffffffffffffffffffffffffffffffffffffffffffffffffffffffff9050826ec097ce7bc90715b34b9f10000000000492505b6000612b77670de0b6b3a76400008581612b7157612b70613acc565b5b05611a94565b9050670de0b6b3a76400008102925060008185901d9050670de0b6b3a7640000811415612bab578284029350505050612c14565b60006706f05b59d3b2000090505b6000811315612c0a57670de0b6b3a764000082830281612bdc57612bdb613acc565b5b059150670de0b6b3a76400006002028212612bfe578085019450600182901d91505b600181901d9050612bb9565b5082840293505050505b919050565b600080821215612c86577ffffffffffffffffffffffffffffffffffffffffffffffffcc22e87f6eb468eeb821215612c545760009050612d02565b612c6082600003612c19565b6ec097ce7bc90715b34b9f100000000081612c7e57612c7d613acc565b5b059050612d01565b680a688906bd8b0000008212612cd357816040517fe69458f9000000000000000000000000000000000000000000000000000000008152600401612cca9190612f7e565b60405180910390fd5b6000670de0b6b3a7640000604084901b81612cf157612cf0613acc565b5b049050612cfd81611ca9565b9150505b5b919050565b60007f7ffffffffffffffffffffffffffffffffffffffffffffffff5023c9904400000821315612d6e57816040517fa733450a000000000000000000000000000000000000000000000000000000008152600401612d659190612f7e565b60405180910390fd5b6000670de0b6b3a76400008381612d8857612d87613acc565b5b0790506000811415612d9c57829150612db9565b80830391506000831315612db857670de0b6b3a7640000820191505b5b50919050565b828054612dcb90613677565b90600052602060002090601f016020900481019282612ded5760008555612e34565b82601f10612e0657805160ff1916838001178555612e34565b82800160010185558215612e34579182015b82811115612e33578251825591602001919060010190612e18565b5b509050612e419190612e45565b5090565b5b80821115612e5e576000816000905550600101612e46565b5090565b6000604051905090565b600080fd5b600080fd5b60007fffffffff0000000000000000000000000000000000000000000000000000000082169050919050565b612eab81612e76565b8114612eb657600080fd5b50565b600081359050612ec881612ea2565b92915050565b600060208284031215612ee457612ee3612e6c565b5b6000612ef284828501612eb9565b91505092915050565b60008115159050919050565b612f1081612efb565b82525050565b6000602082019050612f2b6000830184612f07565b92915050565b6000819050919050565b612f4481612f31565b82525050565b6000602082019050612f5f6000830184612f3b565b92915050565b6000819050919050565b612f7881612f65565b82525050565b6000602082019050612f936000830184612f6f565b92915050565b600081519050919050565b600082825260208201905092915050565b60005b83811015612fd3578082015181840152602081019050612fb8565b83811115612fe2576000848401525b50505050565b6000601f19601f8301169050919050565b600061300482612f99565b61300e8185612fa4565b935061301e818560208601612fb5565b61302781612fe8565b840191505092915050565b6000602082019050818103600083015261304c8184612ff9565b905092915050565b61305d81612f31565b811461306857600080fd5b50565b60008135905061307a81613054565b92915050565b60006020828403121561309657613095612e6c565b5b60006130a48482850161306b565b91505092915050565b600073ffffffffffffffffffffffffffffffffffffffff82169050919050565b60006130d8826130ad565b9050919050565b6130e8816130cd565b82525050565b600060208201905061310360008301846130df565b92915050565b613112816130cd565b811461311d57600080fd5b50565b60008135905061312f81613109565b92915050565b6000806040838503121561314c5761314b612e6c565b5b600061315a85828601613120565b925050602061316b8582860161306b565b9150509250929050565b60008060006060848603121561318e5761318d612e6c565b5b600061319c86828701613120565b93505060206131ad86828701613120565b92505060406131be8682870161306b565b9150509250925092565b6131d181612f65565b81146131dc57600080fd5b50565b6000813590506131ee816131c8565b92915050565b60006020828403121561320a57613209612e6c565b5b6000613218848285016131df565b91505092915050565b60006020828403121561323757613236612e6c565b5b600061324584828501613120565b91505092915050565b61325781612efb565b811461326257600080fd5b50565b6000813590506132748161324e565b92915050565b6000806040838503121561329157613290612e6c565b5b600061329f85828601613120565b92505060206132b085828601613265565b9150509250929050565b600080fd5b600080fd5b7f4e487b7100000000000000000000000000000000000000000000000000000000600052604160045260246000fd5b6132fc82612fe8565b810181811067ffffffffffffffff8211171561331b5761331a6132c4565b5b80604052505050565b600061332e612e62565b905061333a82826132f3565b919050565b600067ffffffffffffffff82111561335a576133596132c4565b5b61336382612fe8565b9050602081019050919050565b82818337600083830152505050565b600061339261338d8461333f565b613324565b9050828152602081018484840111156133ae576133ad6132bf565b5b6133b9848285613370565b509392505050565b600082601f8301126133d6576133d56132ba565b5b81356133e684826020860161337f565b91505092915050565b6000806000806080858703121561340957613408612e6c565b5b600061341787828801613120565b945050602061342887828801613120565b93505060406134398782880161306b565b925050606085013567ffffffffffffffff81111561345a57613459612e71565b5b613466878288016133c1565b91505092959194509250565b600067ffffffffffffffff82111561348d5761348c6132c4565b5b61349682612fe8565b9050602081019050919050565b60006134b66134b184613472565b613324565b9050828152602081018484840111156134d2576134d16132bf565b5b6134dd848285613370565b509392505050565b600082601f8301126134fa576134f96132ba565b5b813561350a8482602086016134a3565b91505092915050565b60006020828403121561352957613528612e6c565b5b600082013567ffffffffffffffff81111561354757613546612e71565b5b613553848285016134e5565b91505092915050565b6000806040838503121561357357613572612e6c565b5b600061358185828601613120565b925050602061359285828601613120565b9150509250929050565b7f4e487b7100000000000000000000000000000000000000000000000000000000600052601160045260246000fd5b60006135d682612f31565b91506135e183612f31565b9250828210156135f4576135f361359c565b5b828203905092915050565b600061360a82612f65565b91507f800000000000000000000000000000000000000000000000000000000000000082141561363d5761363c61359c565b5b816000039050919050565b7f4e487b7100000000000000000000000000000000000000000000000000000000600052602260045260246000fd5b6000600282049050600182168061368f57607f821691505b602082108114156136a3576136a2613648565b5b50919050565b7f4e4f545f415554484f52495a4544000000000000000000000000000000000000600082015250565b60006136df600e83612fa4565b91506136ea826136a9565b602082019050919050565b6000602082019050818103600083015261370e816136d2565b9050919050565b7f57524f4e475f46524f4d00000000000000000000000000000000000000000000600082015250565b600061374b600a83612fa4565b915061375682613715565b602082019050919050565b6000602082019050818103600083015261377a8161373e565b9050919050565b7f494e56414c49445f524543495049454e54000000000000000000000000000000600082015250565b60006137b7601183612fa4565b91506137c282613781565b602082019050919050565b600060208201905081810360008301526137e6816137aa565b9050919050565b600082825260208201905092915050565b50565b600061380e6000836137ed565b9150613819826137fe565b600082019050919050565b600060808201905061383960008301866130df565b61384660208301856130df565b6138536040830184612f3b565b818103606083015261386481613801565b9050949350505050565b60008151905061387d81612ea2565b92915050565b60006020828403121561389957613898612e6c565b5b60006138a78482850161386e565b91505092915050565b7f554e534146455f524543495049454e5400000000000000000000000000000000600082015250565b60006138e6601083612fa4565b91506138f1826138b0565b602082019050919050565b60006020820190508181036000830152613915816138d9565b9050919050565b600061392782612f65565b915061393283612f65565b9250817f7fffffffffffffffffffffffffffffffffffffffffffffffffffffffffffffff0383136000831215161561396d5761396c61359c565b5b817f80000000000000000000000000000000000000000000000000000000000000000383126000831216156139a5576139a461359c565b5b828201905092915050565b600081519050919050565b60006139c6826139b0565b6139d081856137ed565b93506139e0818560208601612fb5565b6139e981612fe8565b840191505092915050565b6000608082019050613a0960008301876130df565b613a1660208301866130df565b613a236040830185612f3b565b8181036060830152613a3581846139bb565b905095945050505050565b6000613a4b82612f31565b91507fffffffffffffffffffffffffffffffffffffffffffffffffffffffffffffffff821415613a7e57613a7d61359c565b5b600182019050919050565b600081905092915050565b6000613aa1600083613a89565b9150613aac826137fe565b600082019050919050565b6000613ac282613a94565b9150819050919050565b7f4e487b7100000000000000000000000000000000000000000000000000000000600052601260045260246000fd5b6000604082019050613b106000830185612f3b565b613b1d6020830184612f3b565b9392505050565b6000613b2f82612f31565b9150613b3a83612f31565b9250827fffffffffffffffffffffffffffffffffffffffffffffffffffffffffffffffff03821115613b6f57613b6e61359c565b5b828201905092915050565b7f414c52454144595f4d494e544544000000000000000000000000000000000000600082015250565b6000613bb0600e83612fa4565b9150613bbb82613b7a565b602082019050919050565b60006020820190508181036000830152613bdf81613ba3565b905091905056fea2646970667358221220f43cf84397a9b97ce458b6484c1f6f9b77d5653b8407d0035ead20610b36854764736f6c634300080c0033",
  "immutableReferences": {
    "30": [
      {
        "length": 32,
        "start": 4090
      },
      {
        "length": 32,
        "start": 4271
      },
      {
        "length": 32,
        "start": 10766
      }
    ],
    "33": [
      {
        "length": 32,
        "start": 1801
      },
      {
        "length": 32,
        "start": 4524
      },
      {
        "length": 32,
        "start": 10855
      }
    ],
    "36": [
      {
        "length": 32,
        "start": 4165
      },
      {
        "length": 32,
        "start": 5134
      }
    ],
    "39": [
      {
        "length": 32,
        "start": 2649
      },
      {
        "length": 32,
        "start": 5734
      }
    ]
  },
  "source": "// SPDX-License-Identifier: Unlicense\npragma solidity 0.8.12;\n\nimport {ERC721} from \"./ERC721.sol\";\nimport {PRBMathSD59x18} from \"./libs/PRBMathSD59x18.sol\";\n\n///@notice CRISP -- a mechanism to sell NFTs continuously at a targeted rate over time\ncontract CRISP is ERC721 {\n    using PRBMathSD59x18 for int256;\n\n    /// ---------------------------\n    /// ------- CRISP STATE -------\n    /// ---------------------------\n\n    ///@notice block on which last purchase occured\n    uint256 public lastPurchaseBlock;\n\n    ///@notice block on which we start decaying price\n    uint256 public priceDecayStartBlock;\n\n    ///@notice last minted token ID\n    uint256 public curTokenId = 0;\n\n    ///@notice Starting EMS, before time decay. 59.18-decimal fixed-point\n    int256 public nextPurchaseStartingEMS;\n\n    ///@notice Starting price for next purchase, before time decay. 59.18-decimal fixed-point\n    int256 public nextPurchaseStartingPrice;\n\n    /// ---------------------------\n    /// ---- CRISP PARAMETERS -----\n    /// ---------------------------\n\n    ///@notice EMS target. 59.18-decimal fixed-point\n    int256 public immutable targetEMS;\n\n    ///@notice controls decay of sales in EMS. 59.18-decimal fixed-point\n    int256 public immutable saleHalflife;\n\n    ///@notice controls upward price movement. 59.18-decimal fixed-point\n    int256 public immutable priceSpeed;\n\n    ///@notice controls price decay. 59.18-decimal fixed-point\n    int256 public immutable priceHalflife;\n\n    /// ---------------------------\n    /// ------- ERRORS  -----------\n    /// ---------------------------\n\n    error InsufficientPayment();\n\n    error FailedToSendEther();\n\n    constructor(\n        string memory _name,\n        string memory _symbol,\n        int256 _targetBlocksPerSale,\n        int256 _saleHalflife,\n        int256 _priceSpeed,\n        int256 _priceHalflife,\n        int256 _startingPrice\n    ) ERC721(_name, _symbol) {\n        lastPurchaseBlock = block.number;\n        priceDecayStartBlock = block.number;\n\n        saleHalflife = _saleHalflife;\n        priceSpeed = _priceSpeed;\n        priceHalflife = _priceHalflife;\n\n        //calculate target EMS from target blocks per sale\n        targetEMS = PRBMathSD59x18.fromInt(1).div(\n            PRBMathSD59x18.fromInt(1) -\n                PRBMathSD59x18.fromInt(2).pow(\n                    -_targetBlocksPerSale.div(saleHalflife)\n                )\n        );\n        nextPurchaseStartingEMS = targetEMS;\n\n        nextPurchaseStartingPrice = _startingPrice;\n    }\n\n    ///@notice get current EMS based on block number. Returns 59.18-decimal fixed-point\n    function getCurrentEMS() public view returns (int256 result) {\n        int256 blockInterval = int256(block.number - lastPurchaseBlock);\n        blockInterval = blockInterval.fromInt();\n        int256 weightOnPrev = PRBMathSD59x18.fromInt(2).pow(\n            -blockInterval.div(saleHalflife)\n        );\n        result = nextPurchaseStartingEMS.mul(weightOnPrev);\n    }\n\n    ///@notice get quote for purchasing in current block, decaying price as needed. Returns 59.18-decimal fixed-point\n    function getQuote() public view returns (int256 result) {\n        if (block.number <= priceDecayStartBlock) {\n            result = nextPurchaseStartingPrice;\n        }\n        //decay price if we are past decay start block\n        else {\n            int256 decayInterval = int256(block.number - priceDecayStartBlock)\n                .fromInt();\n            int256 decay = (-decayInterval).div(priceHalflife).exp();\n            result = nextPurchaseStartingPrice.mul(decay);\n        }\n    }\n\n    ///@notice Get starting price for next purchase before time decay. Returns 59.18-decimal fixed-point\n    function getNextStartingPrice(int256 lastPurchasePrice)\n        public\n        view\n        returns (int256 result)\n    {\n        int256 mismatchRatio = nextPurchaseStartingEMS.div(targetEMS);\n        if (mismatchRatio > PRBMathSD59x18.fromInt(1)) {\n            result = lastPurchasePrice.mul(\n                PRBMathSD59x18.fromInt(1) + mismatchRatio.mul(priceSpeed)\n            );\n        } else {\n            result = lastPurchasePrice;\n        }\n    }\n\n    ///@notice Find block in which time based price decay should start\n    function getPriceDecayStartBlock() internal view returns (uint256 result) {\n        int256 mismatchRatio = nextPurchaseStartingEMS.div(targetEMS);\n        //if mismatch ratio above 1, decay should start in future\n        if (mismatchRatio > PRBMathSD59x18.fromInt(1)) {\n            uint256 decayInterval = uint256(\n                saleHalflife.mul(mismatchRatio.log2()).ceil().toInt()\n            );\n            result = block.number + decayInterval;\n        }\n        //else decay should start at the current block\n        else {\n            result = block.number;\n        }\n    }\n\n    ///@notice Pay current price and mint new NFT\n    function mint(string memory uri) public payable {\n        int256 price = getQuote();\n        uint256 priceScaled = uint256(price.toInt());\n        if (msg.value < priceScaled) {\n            revert InsufficientPayment();\n        }\n\n        uint256 id = curTokenId++;\n\n        _mint(msg.sender, id);\n        _setTokenURI(id, uri);\n\n        //update state\n        nextPurchaseStartingEMS = getCurrentEMS() + PRBMathSD59x18.fromInt(1);\n        nextPurchaseStartingPrice = getNextStartingPrice(price);\n        priceDecayStartBlock = getPriceDecayStartBlock();\n        lastPurchaseBlock = block.number;\n\n        //issue refund\n        uint256 refund = msg.value - priceScaled;\n        (bool sent, ) = msg.sender.call{value: refund}(\"\");\n        if (!sent) {\n            revert FailedToSendEther();\n        }\n    }\n}\n",
  "sourcePath": "/app/contracts/CRISP.sol",
  "compiler": {
    "name": "solc",
    "version": "0.8.12+commit.f00d7308.Emscripten.clang"
  },
  "schemaVersion": "3.4.5",
  "updatedAt": "2022-03-10T19:53:30.529Z",
  "networkType": "ethereum",
  "devdoc": {
    "kind": "dev",
    "methods": {},
    "version": 1
  },
  "userdoc": {
    "errors": {
      "InsufficientPayment()": [
        {
          "notice": "--------------------------- ------- ERRORS  ----------- ---------------------------"
        }
      ],
      "PRBMathSD59x18__CeilOverflow(int256)": [
        {
          "notice": "Emitted when ceiling a number overflows SD59x18."
        }
      ],
      "PRBMathSD59x18__DivInputTooSmall()": [
        {
          "notice": "Emitted when one of the inputs is MIN_SD59x18."
        }
      ],
      "PRBMathSD59x18__DivOverflow(uint256)": [
        {
          "notice": "Emitted when one of the intermediary unsigned results overflows SD59x18."
        }
      ],
      "PRBMathSD59x18__Exp2InputTooBig(int256)": [
        {
          "notice": "Emitted when the input is greater than 192."
        }
      ],
      "PRBMathSD59x18__ExpInputTooBig(int256)": [
        {
          "notice": "Emitted when the input is greater than 133.084258667509499441."
        }
      ],
      "PRBMathSD59x18__FromIntOverflow(int256)": [
        {
          "notice": "Emitted when converting a basic integer to the fixed-point format overflows SD59x18."
        }
      ],
      "PRBMathSD59x18__FromIntUnderflow(int256)": [
        {
          "notice": "Emitted when converting a basic integer to the fixed-point format underflows SD59x18."
        }
      ],
      "PRBMathSD59x18__LogInputTooSmall(int256)": [
        {
          "notice": "Emitted when the input is less than or equal to zero."
        }
      ],
      "PRBMathSD59x18__MulInputTooSmall()": [
        {
          "notice": "Emitted when one of the inputs is MIN_SD59x18."
        }
      ],
      "PRBMathSD59x18__MulOverflow(uint256)": [
        {
          "notice": "Emitted when the intermediary absolute result overflows SD59x18."
        }
      ],
      "PRBMath__MulDivFixedPointOverflow(uint256)": [
        {
          "notice": "Emitted when the result overflows uint256."
        }
      ],
      "PRBMath__MulDivOverflow(uint256,uint256)": [
        {
          "notice": "Emitted when the result overflows uint256."
        }
      ]
    },
    "kind": "user",
    "methods": {
      "curTokenId()": {
        "notice": "last minted token ID"
      },
      "getCurrentEMS()": {
        "notice": "get current EMS based on block number. Returns 59.18-decimal fixed-point"
      },
      "getNextStartingPrice(int256)": {
        "notice": "Get starting price for next purchase before time decay. Returns 59.18-decimal fixed-point"
      },
      "getQuote()": {
        "notice": "get quote for purchasing in current block, decaying price as needed. Returns 59.18-decimal fixed-point"
      },
      "lastPurchaseBlock()": {
        "notice": "block on which last purchase occured"
      },
      "mint(string)": {
        "notice": "Pay current price and mint new NFT"
      },
      "nextPurchaseStartingEMS()": {
        "notice": "Starting EMS, before time decay. 59.18-decimal fixed-point"
      },
      "nextPurchaseStartingPrice()": {
        "notice": "Starting price for next purchase, before time decay. 59.18-decimal fixed-point"
      },
      "priceDecayStartBlock()": {
        "notice": "block on which we start decaying price"
      },
      "priceHalflife()": {
        "notice": "controls price decay. 59.18-decimal fixed-point"
      },
      "priceSpeed()": {
        "notice": "controls upward price movement. 59.18-decimal fixed-point"
      },
      "saleHalflife()": {
        "notice": "controls decay of sales in EMS. 59.18-decimal fixed-point"
      },
      "targetEMS()": {
        "notice": "EMS target. 59.18-decimal fixed-point"
      }
    },
    "notice": "CRISP -- a mechanism to sell NFTs continuously at a targeted rate over time",
    "version": 1
  }
}